:020000040800F2
:10000000E00A002001010008971E0008471A0008B6
:10001000951E0008BD010008D72900080000000057
:10002000000000000000000000000000BD220008E9
:10003000BF02000800000000991E00085D270008AC
:100040001B0100081B0100081B0100081B01000820
:100050001B0100081B0100081B0100081B01000810
:10006000C10200081B0100081B0100081B01000859
:100070001B0100081B0100081B010008BF0100084C
:100080001B0100081B0100081B0100081B010008E0
:100090001B0100081B0100081B0100081B010008D0
:1000A0001B0100081B0100081B0100081B010008C0
:1000B0001B0100081B0100081B0100081B010008B0
:1000C0001B0100081B0100081B0100081B010008A0
:1000D0001B0100088D2900081B0100081B010008F6
:1000E0001B0100081B0100081B010008DFF80CD0F1
:1000F00000F052F800480047E12B0008E00A002019
:100100000648804706480047FEE7FEE7FEE7FEE7B1
:10011000FEE7FEE7FEE7FEE7FEE7FEE7AF270008A3
:10012000ED00000840EA01039B0703D009E008C97D
:10013000121F08C0042AFAD203E011F8013B00F8AC
:10014000013B521EF9D27047D2B201E000F8012BF8
:10015000491EFBD270470022F6E710B513460A4647
:1001600004461946FFF7F0FF204610BD30B50B4698
:10017000014600202022012409E021FA02F59D42D7
:1001800005D303FA02F5491B04FA02F52844151EAB
:10019000A2F10102F1DC30BD064C074D06E0E0683B
:1001A00040F0010394E8070098471034AC42F6D3BE
:1001B000FFF7A0FFE847000808480008FEE770477F
:1001C00070B5054600680168C943890754D42B49B6
:1001D000884201D1022022E028491431884201D10D
:1001E00020201CE025492831884201D1401516E025
:1001F00022493C31884202D14FF400500FE01F49A0
:100200005031884202D14FF4003008E01B4964317C
:10021000884202D14FF4001001E04FF000701749FE
:100220000839486028684068154CC0F580706060E7
:100230002168C1F58072A260824200D9A060A068E6
:10024000104E014430442160E0600FA002F0A8FC91
:100250000F490870606800B12060E96B6FF0704072
:1002600048602868C66029684FF480704860286834
:10027000016841F00101016070BD0000080002400A
:10028000000000204004002070696E6B75000000C3
:100290002800002030B590F840500124AC40C56BD8
:1002A0006C60046863604368102B036803D0996036
:1002B0000068C26030BD9A600068C16030BD7047A0
:1002C0002DE9F0474E484F4C86B0407B012804D1C1
:1002D00013214B4802F094F820704B4D4FF48047A7
:1002E00000223946284600F025FA1021444802F041
:1002F00087F802460D21424802F0AFF92378434ABD
:1003000000213F4802F054F8404822780026014678
:100310008654C8233E4801F03DFB01223946284659
:1003200000F008FA364802F09EF93A4F4FF40059AF
:100330003878012852D100224946AA46284600F0C2
:10034000F9F9354D0D21354C6878542804D04328EF
:1003500009D04C2811D039E0542021706070A87861
:10036000A070032203E043202170607002222B4919
:10037000234802F0E7FE2E7028E021704C206070C8
:10038000A878274A00F00F01A170E8784FF0140810
:1003900000F00F00801DE07084F804801070214888
:1003A000052201701D49164802F0CCFE2E70022075
:1003B000CDF81480CDE90360642208218DE80700A0
:1003C000E378A17830220E4801F079FF16483E709C
:1003D000012206704946504600F0ACF9134901204D
:1003E000024608704946124800F0A4F9044802F099
:1003F0003AF906B00420BDE8F04700F097B80000D5
:100400006C0500202F000020000C0140AC060020ED
:10041000280600202B000020400400203A05002080
:100420002D0000202E0000202A0000202C0000209B
:10043000001001407047000030B528B308C81349C8
:1004400014221944B1FBF2F18900C16310498163A0
:10045000022141771A6843F6F0718A43D0E900140B
:100460002143D0E902452C432143046921434469D7
:100470002143846921431143196000214163012212
:1004800042770177084630BD012030BDF8FFFDBF3F
:100490000000024070B5044690F8200000250128B5
:1004A0000CD0012084F8200094F821600020012E57
:1004B00006D084F820000225284670BD022070BDB9
:1004C000022684F82160A0632068066826F00106F1
:1004D00006602046FFF7DEFEE06A0028206801681B
:1004E00002D041F00E0106E021F004010160206815
:1004F000016841F00A0101602068016841F00101D2
:100500000160D9E770B5044600F01AF90546601C91
:1005100002D004480078044400F012F9401BA042C5
:10052000FAD370BD3000002070470000044910B5B8
:100530000A68024202D00860FFF7F6FF10BD000013
:10054000140401402DE9F84FDFF8B891002409F1B7
:10055000040A0AF1040B23460F270BF1040EC9E02D
:100560000125A5402A40AA427DD1674ED1F804C09A
:10057000ACEB0608B44532D014DCBCF1030F3AD022
:1005800009DCBCF1000F2AD0BCF1010F1CD0BCF17A
:10059000020F31D11DE0BCF1110F17D0BCF1120FC9
:1005A0002AD119E0B8F5881F19D006DCB8F5803FCC
:1005B00015D0B8F5801F1FD111E0B8F5001F0ED07F
:1005C000B8F5041F18D10AE0CB6815E0CB681B1DF5
:1005D00012E0CB6808330FE0CB680C330CE08B687B
:1005E0002BB1012B4FF0080303D0456104E0042335
:1005F00002E0056100E00023FF2A01D8064601E081
:1006000000F104064FEA840501D9A5F12005D6F8CA
:10061000008007FA05FC28EA0C0803FA05F548EA09
:100620000508C6F800804D68ED0062D5374DAE690B
:1006300046F00106AE61AD6924F0030605F0010540
:100640000095334D06EB050CDCF80850A607360F75
:1006500007FA06F825EA0805DFF8B880404503D117
:100660004FF0000817E044E0DFF8AC80404502D1CD
:100670004FF001080FE0DFF8A480404502D14FF0B1
:10068000020808E0DFF89880404502D14FF00308E7
:1006900001E04FF0040808FA06F848EA0508CCF82B
:1006A00008804D68D9F80060ED034D4601D516432A
:1006B00000E096432E604D68DAF80060AD035546C1
:1006C00001D5164300E096432E604D68DBF80060CC
:1006D000ED025D4601D5164300E096432E604D685D
:1006E000DEF80060AD02754601D5164300E0964382
:1006F0002E60641C0D682A46E5407FF431AFBDE8EA
:10070000F88F0000000401400000111000100240AA
:100710000000014000080140000C014000100140B1
:1007200000140140C26821EA02030A4043EA024180
:10073000016170470AB1016170470904FBE70000DD
:1007400001488068704700003000002070B5040048
:1007500025D094F83D00002520B984F83C5020466F
:1007600000F004FA242084F83D002068016821F09C
:10077000010101602068016841F4004101602068C6
:10078000016821F40041016000F04CFB4D4A6168B2
:10079000914201D84C4900E04C49884201D20120E5
:1007A00070BD4B492368B0FBF1F15E6826F03F064F
:1007B0000E435E606368934206D94FF496735943C3
:1007C0004FF47A73B1FBF3F12368491C1E6A26F0DB
:1007D0003F06314319626168914210D84900401EBA
:1007E000B0FBF1F2521CC2F30B02042A01D2042026
:1007F00022E0B0FBF1F0401CC0F30B001CE0A2684B
:10080000F2B301EBC10303EB0116431EB3FBF6F396
:100810005B1C43F480431B0549D092B301EBC1023A
:1008200002EB0111401EB0FBF1F0401CC0F30B00C5
:1008300040F4804040F400402168CA694CF6FF73E0
:100840009A431043C861D4E9071001432068026845
:1008500022F0C00211430160D4E903010143206882
:10086000826848F2FF339A4311438160D4E905015D
:1008700008432168CA6822F0FF021043C86001E003
:100880000EE016E02068016841F001010160256476
:10089000202084F83D00256384F83E50002070BD80
:1008A00001EB4106431EB3FBF6F35B1CB3E70120EB
:1008B000C2E701EB4101401EB0FBF1F0401CC0F368
:1008C0000B00B7E7A086010080841E0000093D00F0
:1008D00040420F002DE9FF4F81B089460446FFF7E3
:1008E0002FFF054694F83D004FF0010820287DD1E8
:1008F0001923012250492046009501F031F90028C2
:1009000074D194F83C00012870D0012084F83C0098
:1009100020680168C90703D1016841F00101016045
:100920002068016821F400610160242084F83D0002
:10093000002626644148E0624FF0011B2027206812
:10094000016841F4807101600095002259462046FB
:10095000049B01F005F950B120680068C00502D57C
:100960004FF400702064032005B0BDE8F08F2168CB
:1009700009F0FE000861FFF7E3FE216805464869BB
:100980004969C0F34000C1F380214FF0A00A0FE095
:10099000FFF7D6FE411B0498814200D808B984F8BD
:1009A0003DA0216848694969C0F34000C1F3802136
:1009B00094F83D20A02A02D008B90029E8D084F894
:1009C0003D7020684169C943890716D4016841F424
:1009D000007101602068416980691923012216496C
:1009E0002046009501F0BCF8B8B900E021E084F899
:1009F0003D7084F83C600020B6E7016841F4007166
:100A0000016021686FF480604861192301220A495E
:100A10002046009501F0A4F808B10120A4E703984E
:100A200008F1010880458AD384F83D7084F83C6061
:100A3000F3E7022098E70000020010000000FFFF2B
:100A40002DE9F84F1F4690468A460446DDF8289067
:100A5000FFF776FE054694F83D0020287FD1192344
:100A6000012240492046009501F07AF8002876D10D
:100A700094F83C00012872D0012084F83C002068E2
:100A80000168C90703D1016841F0010101602068D4
:100A9000016821F400610160212084F83D001020EC
:100AA00084F83E0000262664C4F824806785608DA3
:100AB00020852D48E0622B464A465146204600F0EC
:100AC000DBFF90B9206841698069009036E02A46D2
:100AD0004946204601F0C3F850B1206C042804D1E7
:100AE0002068016841F4007101600120BDE8F88FC1
:100AF000606A216800780861606A401C6062618DEC
:100B0000491E6185218D491E89B22185226853695C
:100B1000DB435B070BD451B100781061606A401C65
:100B20006062608D401E6085208D401E20852A46B3
:100B30004946204600F0EEFF0028CED1208D002847
:100B4000C5D154F83D0B016841F4007101602020CB
:100B500004F81E09E67766770020C7E7FFE7022062
:100B6000C4E70000020010000000FFFF10B586B0CF
:100B70000021009101910291039100680F49884280
:100B80001AD10F4CA06940F00800A061A069694625
:100B900000F008000490C020009012200190032073
:100BA00003900848FFF7CEFCE06940F40010E061D4
:100BB000E06900F40010049006B010BD005400403D
:100BC00000100240000C0140024881680278114484
:100BD0008160704730000020074810B5016841F07F
:100BE00010010160032000F075F8002000F006F805
:100BF00000F024F8002010BD0020024070B50D4D1B
:100C000004464FF47A712878B1FBF0F00A4909687C
:100C1000B1FBF0F000F0CFFD48B9102C07D2002254
:100C20002146501E00F036F800206C6070BD012097
:100C300070BD0000300000203C0000200C4808B5CA
:100C4000816941F001018161816901F00101009137
:100C5000C16941F08051C161C06900F080500090CD
:100C60000448416821F0E06141F00071416008BD35
:100C70000010024000000140002809DB00F01F02C4
:100C8000012191404009800000F1E020C0F80011EE
:100C900070470000F0B40E4B1B680C46C3F30223F0
:100CA000C3F10705042D00D90425191D072901D218
:100CB000002300E0DB1E012606FA05F1491E214053
:100CC00099409E40761E16403143F0BC01F098BE1C
:100CD0000CED00E0064900F0070208684FF6FF033C
:100CE000184040EA0220034A1043086070470000A1
:100CF0000CED00E00000FA052DE9F0470F46050075
:100D000061D0434E306800F00700B84209D2306825
:100D100020F0070038433060306800F00700B84228
:100D200051D128683B4C810712D5400703D5606834
:100D300040F4E06060602878000703D5606840F404
:100D4000605060606068A96820F0F000084360604F
:100D50002878C00728D06868012810D021680228A8
:100D600010D0890700292EDA616821F003010143C0
:100D70006160FFF7E5FC804641F288390DE02168AB
:100D80008903EFE78901EDE7FFF7DAFCA0EB080143
:100D9000494502D90320BDE8F0876068696800F022
:100DA0000C00B0EB810FEFD1306800F00700B842C3
:100DB0000BD9306820F0070038433060306800F00D
:100DC0000700B84201D00120E5E72878400705D5A3
:100DD0006068E96820F4E0600843606028780007F4
:100DE00006D56068296920F4605040EAC10060605F
:100DF00000F038F86168084AC1F30311515CC8403B
:100E00000649086006480068FFF7F8FE0020C2E7C0
:100E10000020024000100240D04600083C000020A4
:100E2000340000200448054900684968044AC1F3B9
:100E30000221515CC84070473C0000200010024075
:100E4000E04600080448054900684968044AC1F3BF
:100E5000C221515CC84070473C0000200010024095
:100E6000E046000812A185B00FC98DE80F0014A05C
:100E7000144A006804905168134801F00C03042BD5
:100E800010D0082B0ED1C1F38343C9031DF8030012
:100E90000AD5516804AAC1F34041515C0A4A504343
:100EA000B0FBF1F005B0704708494843FAE700008D
:100EB00002030405060708090A0B0C0D0E0F10109B
:100EC000010200000010024000127A0000093D00FB
:100ED0002DE9F84F040070D02078C04DC00749D0EC
:100EE0006868C0F38100012807D06868C0F38100FA
:100EF000022809D16868C00306D52868800339D55F
:100F000060680028E7D035E06068B0F5803F0BD01E
:100F100010B1B0F5A02F11D0286820F480302860DF
:100F2000286820F4802002E0286840F4803028609F
:100F3000606890B1FFF704FC06460AE0286840F4B8
:100F400080202860F0E700BFFFF7FAFB801B6428D1
:100F500073D828688003F7D50CE0FFF7F1FB06464D
:100F600005E000BFFFF7ECFB801B6428F0D8286881
:100F70008003F7D420789A4E80074FF001094FF094
:100F8000000839D5686810F00C0F07D06868C0F306
:100F90008100022809D16868C00306D42868800748
:100FA00014D52069012808D110E02069B0B1C6F835
:100FB0000090FFF7C5FB074605E00AE1FFF7C0FB1D
:100FC000C01B0228C4D828688007F7D52868616943
:100FD00020F0F80040EAC10028600DE0C6F800806B
:100FE000FFF7AEFB074604E0FFF7AAFBC01B022891
:100FF00023D828688007F7D4207800072CD57948B3
:10100000A169D9B1C0F80090FFF79AFB074604E048
:10101000FFF796FBC01B02280FD8686A8007F7D538
:1010200071484FF4FA510068B0FBF1F0009000BF36
:101030000098411E0091FAD20EE080E0C0F80080D6
:10104000FFF77EFB074604E0FFF77AFBC01B022890
:1010500075D8686A8007F7D42078400760D5E869BA
:101060000027C00008D4E86940F08050E861E869D2
:10107000012700F0805000905C480168C90513D436
:101080000168834641F480710160FFF759FB824695
:1010900006E000BFFFF754FBA0EB0A0064284ED81F
:1010A000DBF80000C005F5D5E06801280AD008B1DA
:1010B000052813D0286A20F001002862286A20F051
:1010C000040002E0286A40F001002862E06841F272
:1010D000883B98B1FFF734FB82460BE0286A40F06A
:1010E00004002862EEE700BFFFF72AFBA0EB0A012D
:1010F00059455AD8286A8007F6D50CE0FFF720FB3F
:10110000824605E0FFF71CFBA0EB0A0159454CD8CD
:10111000286A8007F6D41FB1E86920F08050E861A2
:10112000E06988B36968C1F38101022944D00228CB
:10113000C6F8608004D0FFF703FB044638E034E0D3
:10114000FFF7FEFA074604E0FFF7FAFAC01B022891
:101150002BD828688001F7D4206AB0F5803F05D1EC
:101160006868A16820F4003008436860D4E9080189
:101170000843696821F4741108436860C6F86090F8
:10118000FFF7DEFA044606E025E000BFFFF7D8FAD5
:10119000001B022809D828688001F7D51BE000BF92
:1011A000FFF7CEFA001B022802D90320BDE8F88F12
:1011B00028688001F4D40EE00128F7D06868226A1C
:1011C00000F48031914204D1616A00F470108842C9
:1011D00001D00120EAE70020E8E70000001002400B
:1011E00000004242800442423C0000200070004067
:1011F00070B5040009D0606A002540B125616561C1
:10120000A56294F8510040B10CE0012070BD606807
:10121000B0F5827FF4D0E561F2E784F850502046C3
:1012200000F040F8022084F851002068016821F0A5
:1012300040010160A088218900F4827001F404411A
:101240000843A18901F400610843217C01F00201F7
:101250000843217D01F001010843218B01F4007155
:101260000843217F01F03801084394F8201001F071
:1012700080010843218D01F4005108432168086072
:10128000A069042101EA1040216848602068C16912
:1012900021F40061C1616565012084F851000020DE
:1012A00070BD000030B585B0002400940194029414
:1012B000039400681449884223D11448816941F499
:1012C00080518161816901F480510491816941F00B
:1012D0000401816180690E4D00F004000490A0209B
:1012E0000090022001900320039069462846FFF7F2
:1012F00029F94020CDE90004694628460294FFF709
:1013000021F905B030BD000000300140001002405E
:10131000000801402DE9F84F044640680025984632
:1013200016460F464FF0040BB0F5827F01D1A0683E
:1013300088B194F85000012818D0012084F850009A
:10134000FFF7FEF9814694F851004FF0000A01289A
:101350000ED0022582E084F851B013460A4620469A
:10136000CDF8008000F036F9BDE8F88F0220FBE7E9
:10137000002F72D0002E70D084F851B0C4F854A061
:10138000A763A687E687C4F830A0A4F834A0A4F821
:1013900036A0C4F840A0C4F844A0A068B0F5004F3F
:1013A00009D12068016821F04001016020680168CE
:1013B00021F48041016020680168490603D4016876
:1013C00041F040010160E068D8B139E020688168EF
:1013D000C90709D0007BA16B0870A06B401CA063FB
:1013E000E08F401EE0870CE0FFF7AAF9A0EB0901AF
:1013F000414503D3B8F1FF3F03D036E0B8F1000F09
:1014000033D0E08F0028E1D11DE020688168C90752
:1014100009D0C068A16B0880A06B801CA063E08F1E
:10142000401EE0870CE0FFF78BF9A0EB0901414576
:1014300003D3B8F1FF3F03D017E0B8F1000F14D089
:10144000E08F0028E1D14A464146204600F025FDC4
:1014500008B120206065606D00B10125012084F88D
:10146000510084F850A028467EE70325F6E72DE9D1
:10147000F84F044690F8500000271D46164689464E
:1014800001280DD04FF0010B84F850B0FFF758F948
:10149000804694F85100BA46012804D0022793E010
:1014A0000220BDE8F88FB9F1000F73D0002E71D083
:1014B000032084F85100C4F854A0C4F83090A686E4
:1014C000E686C4F838A0A4F83CA0A4F83EA0C4F86E
:1014D00044A0C4F840A0A068B0F5004F09D120682E
:1014E000016821F0400101602068016841F48041F9
:1014F000016020680168490603D4016841F0400199
:101500000160E068B0F5006F606803D030B3012E71
:1015100024D041E008B1012E1CD1206B2168008845
:10152000C86006E020688168890709D5216B0988B1
:10153000C160206B801C2063E08E401EE08609E0C5
:10154000FFF7FEF8A0EB0800A84202D3681C01D008
:1015500031E07DB3E08E0028E4D120E0206B2168EB
:101560000078087306E020688168890709D5216B37
:1015700009780173206B401C2063E08E401EE086DA
:101580000AE0FFF7DDF8A0EB0800A84203D3681CCF
:1015900002D010E017E06DB1E08E0028E3D14246A2
:1015A0002946204600F0A7FC08B120206065A0680D
:1015B00018B106E0FFE7032706E02068C1688068ED
:1015C0000090606D00B1012784F851B084F850A0FC
:1015D000384666E72DE9F84F044690F8500000279A
:1015E0000A9E1D4692468B464FF0010901280ED0F7
:1015F000012084F85000FFF7A3F8804694F85100CA
:10160000616801280CD0B1F5827F07D102E0022089
:10161000BDE8F88FA16809B9042801D00227C2E00B
:10162000BBF1000F27D0BAF1000F24D01DB394F8FE
:101630005100042802D0052084F851000020606584
:10164000C4F838A0E587A587C4F830B0E586A5863C
:101650002064606420680168490603D4016841F091
:1016600040010160E068B0F5006F606805D0E8B344
:10167000012D46D07FE0012795E008B1012D39D139
:10168000206B21680088C860206B801C2063E08E7E
:10169000401EE0862EE02068816889070FD5E18E24
:1016A00069B1B9F1010F0AD1216B0988C160206BC2
:1016B000801C2063E08E401EE0864FF00009206809
:1016C0008168C9070CD0E18F51B1C068A16B088057
:1016D000A06B801CA063E08F401EE0874FF00109E3
:1016E000FFF72EF8A0EB0800B04200E009E001D3BC
:1016F000701C50D1E08E0028CDD1E08F0028CAD1D7
:101700003FE0206B216800780873206B401C206349
:10171000E08E401EE0862EE02068816889070FD5A4
:10172000E18E69B1B9F1010F0AD1216B097801731A
:10173000206B401C2063E08E401EE0864FF00009C5
:1017400020688168C9070CD0E18F51B1C068A16BD6
:101750000870A06B401CA063E08F401EE0874FF034
:101760000109FEF7EDFFA0EB0800B04202D3701CA8
:1017700001D010E07EB1E08E0028CDD1E08F0028AE
:10178000CAD142463146204600F0B5FB28B10127B8
:101790002020606507E0032705E0A06818B92068ED
:1017A000C16880680090012084F85100002084F80E
:1017B000500038462CE710B5401EB0F1807F01D3B1
:1017C000012010BD4FF0E02460610F21601701F08F
:1017D00017F90020A06107202061002010BD70478C
:1017E00070B5040004D094F83900002510B106E06B
:1017F000012070BD84F83850204600F023F82420E2
:1018000084F839002068C16821F40051C160204685
:1018100001F02EF82068016921F4904101612068EF
:10182000416921F02A0141612068C16841F40051F9
:10183000C160E563202084F8390084F83A00002074
:1018400070BD000070B586B0002506460095019574
:101850000295039500682349884240D1224988694E
:1018600040F480408861886900F480400490886971
:1018700040F00400886188691C4C00F0040004906A
:1018800048150090022001900320039069462046ED
:10189000FEF758FE2015CDE9000569462046029561
:1018A000FEF750FE134C1248C4E900058020C4E93D
:1018B000025020202561C4E905500002E061204665
:1018C000FEF7BAFD08B1FEF7B5FD746300221146BC
:1018D00025206662FFF7DEF92520FFF7CDF906B077
:1018E00070BD0000003801400010024000080140B7
:1018F0005800024068060020F8B5044690F83A0007
:1019000020283CD1C1B3BAB394F83800012836D0AE
:10191000012084F83800A162A2850025E563222019
:1019200084F83A00636B17489862636B1648D86274
:10193000636B16481863606B134645630846666B15
:10194000216802463046091DFEF7A4FD20680168A3
:101950004168009184F83850C16841F48071C160D9
:101960002068416941F0010141612068416941F00D
:10197000400141610020F8BDFFE70120FBE70220A4
:10198000F9E70000FB27000837280008B127000806
:10199000704770472DE9F843044690F839001F4618
:1019A00016460D4620284CD1C5B1BEB194F838007A
:1019B000012846D0012084F838004FF00008C4F810
:1019C0003C80212084F83900FEF7BAFEA6848146C7
:1019D000E684A068B0F5805F03D004E00120BDE894
:1019E000F883206928B12E465FF0000584F838801E
:1019F0000EE00026FAE78021204600F095FFA0B90E
:101A0000AEB116F8010B21684860E08C401EE084FE
:101A1000E08C4B464FF0000200970028EBD14FF0CE
:101A20004001204600F080FF30B10320D7E735F8B1
:101A3000020BC0F30800E6E7202084F839000020FC
:101A4000CDE70220CBE7FEE701684A69D2435205A1
:101A50000FD46FF480624A61002140F8301F2022C9
:101A600042738173026942F0040202610173012032
:101A70007047002070470000F8B50446C06A1E4653
:101A80000D461746082807D0012805D010F5803FDD
:101A900002D0206B122804D12068016841F48071C3
:101AA0000160134600224FF001112046009600F01D
:101AB00057F840B120680068C00502D54FF40070A7
:101AC00020640320F8BD2069B0F5804F0ED00620B9
:101AD000216800EAD51040F0F000086133463A462C
:101AE0000B49204600F070F878B902E005F0FE00DE
:101AF00000E0E8B221680861054933463A46891F8B
:101B0000204600F061F80028DCD00120F8BD00007C
:101B10000800010070B516460D4604460DE020464B
:101B2000FFF792FF08B1012070BD681C05D0FEF7D9
:101B300007FE801BA84207D835B120684069C04322
:101B40004007ECD4002070BD002044F8300F202165
:101B50006173A073216941F0200121612073E2E7E4
:101B60002DE9F0471E4690460D460446C1F307474F
:101B7000DDF8209008E0701C06D0FEF7E1FDA0EB38
:101B80000900B0420FD876B12068012F18D08069C3
:101B900025EA00000004000C14D000214145EAD0E1
:101BA0000020BDE8F087002044F8300F2021617349
:101BB000A073216941F02001216120730120F0E729
:101BC0004069E5E70121E9E72DE9F0479A469146AA
:101BD0000E46044600254FF02008C1F3074725E0D4
:101BE00020684069C043400514D42068016841F46E
:101BF0000071016021686FF480604861256384F89A
:101C00003D8084F83E50206C40F00400206484F84D
:101C10003C501FE0B9F1FF3F08D0FEF791FDA0EB6B
:101C20000A0149450CD8B9F1000F09D02068012FED
:101C300013D0806926EA00000004000C0BD0CFE727
:101C400044F8305F84F80D80A573206940F02000CF
:101C5000206125730120BDE8F0874069EAE770B58F
:101C600016460D4604460DE02046FFF7EDFE08B18E
:101C7000012070BD681C05D0FEF762FD801BA842E4
:101C800007D835B120684069C0430006ECD4002075
:101C900070BD002044F8300F20216173A0732169CA
:101CA00041F0200121612073E2E70000094808B5F6
:101CB000416941F0010141614069002200F00100E9
:101CC000009011460F20FEF7E5FFBDE808400F2009
:101CD000FEF7D2BF001002402DE9F04F85B000247E
:101CE00037480094019402940394816941F01001F3
:101CF0008161816901F010010491816941F0200145
:101D00008161816901F020010491816941F0040140
:101D10008161816901F004010491816941F0080148
:101D200081618069DFF89C9000F008004FF4005555
:101D30000490002229464846FEF7FCFCDFF888A004
:101D400046F20107002239465046FEF7F3FCDFF861
:101D50007CB04FF48078002241465846FEF7EAFCFA
:101D60000095022601250396CDE9015469464846AF
:101D7000FEF7E8FB00970396CDE90154694650460B
:101D8000FEF7E0FB042000901148CDE9010469460C
:101D90005046FEF7D7FBCDF800800396CDE90154FD
:101DA00069465846FEF7CEFB002211460820FEF792
:101DB00071FF0820FEF760FF05B0BDE8F08F00005E
:101DC0000010024000100140000C014000080140DA
:101DD000000011100D4810B50B4901600C4941601D
:101DE00000214FF480428160C0E9031241618161AA
:101DF000C1610162FEF7AAFC002803D0BDE81040D3
:101E0000FEF718BB10BD0000005400407C05002008
:101E1000801A0600104810B50E4901604FF4827117
:101E2000416000218160C1604FF400720161C0E92E
:101E300005121022C0E90721416281620A21C162B4
:101E4000FFF7D6F9002803D0BDE81040FEF7F2BA3C
:101E500010BD000000300140D00500200C4810B536
:101E60000A4901604FF4E1314160002181600C2298
:101E7000C160C0E904128161C161FFF7B1FC0028B3
:101E800003D0BDE81040FEF7D5BA10BD00380140C0
:101E900028060020FEE770477047F8B50446406802
:101EA0004FF48273984217D1A0684FF48065B0F563
:101EB000004F01D0A8420FD12068066826F04006E6
:101EC00006606068984207D1A068A84204D10092D9
:101ED0000B460022012103E000920B4600228021E4
:101EE000204600F019F8002804D0606D40F0200072
:101EF00060650320F8BD38B50B4600920446002209
:101F0000802100F009F8002804D0606D40F0200026
:101F10006065032038BD00002DE9F8431E46914658
:101F200088460446089DFEF70BFC401B351AFEF759
:101F300007FC074625480068C0F3CB30684338E00B
:101F4000701C37D0FEF7FCFBC01BA84203D215B1B2
:101F5000009860B32CE02068416821F0E001416006
:101F60006068B0F5827F0BD1A068B0F5004F02D059
:101F7000B0F5806F04D12068016821F04001016054
:101F8000A06AB0F5005F09D12068016821F4005112
:101F900001602068016841F400510160012084F86B
:101FA0005100002084F850000320BDE8F88300258C
:101FB000401E00902068816838EA010004D00021AA
:101FC0004945BDD10020F0E70121F9E73C000020A0
:101FD00010B5002000F024F8BDE8104000F04AB928
:101FE00070B5802813D2402911D20B4B012401F087
:101FF00007051E79AC40094BC90800EBC1100EB1B2
:1020000032B101E0012A03D0195CA143195470BD1B
:10201000195C2143FAE70000100000204000002076
:1020200028B1FF224FF480610248FEF78DB80022EC
:10203000F8E7000040000020014A108051807047FE
:102040001000002010B500F0C7FF44F62063012205
:1020500078215448FEF73EFC08B1002010BD40F640
:10206000C210401EFDD1AE220021782000F0BAFF40
:1020700020220021782000F0B5FF102200217820D6
:1020800000F0B0FFB0220021782000F0ABFFC822A2
:102090000021782000F0A6FF00221146782000F0F1
:1020A000A1FF10220021782000F09CFF4022002197
:1020B000782000F097FF81220021782000F092FF25
:1020C000FF220021782000F08DFFA122002178203E
:1020D00000F088FFA6220021782000F083FFA822CC
:1020E0000021782000F07EFF3F220021782000F0C0
:1020F00079FFA4220021782000F074FFD322002170
:10210000782000F06FFF00221146782000F06AFF6F
:10211000D5220021782000F065FFF02200217820F0
:1021200000F060FFD9220021782000F05BFF22221E
:102130000021782000F056FFDA220021782000F0FC
:1021400051FF12220021782000F04CFFDB220021F9
:10215000782000F047FF20220021782000F042FF85
:102160008D220021782000F03DFF142200217820EC
:1021700000F038FFAF220021782000F033FF2E223C
:102180000021782000F02EFF0020FFF749FF00F02B
:1021900071F8054800210180418001214171084604
:1021A00010BD00007C050020100000202DE9F04744
:1021B000814625480D46924601882A781144802997
:1021C00005D28046408869780844402802D3002020
:1021D000BDE8F08700262AE0A9F1200101FB00609C
:1021E0006A68002432F810701DE000BF07FA04F09E
:1021F000000409D5B8F80210B8F8000031442044B2
:1022000089B280B252460BE0BAF1000F1AD0002218
:10221000B8F80210B8F800003144204489B280B206
:10222000FFF7DEFE641C2878A042DFD8761C6878B1
:10223000B042D1D8B8F800102A7848461144A8F81E
:102240000010C5E70122E3E71000002070B5154635
:102250000E46044609E02A463146FFF7A7FF2178DB
:10226000884201D0C8B270BD641C20780028F2D129
:10227000C0B270BD70B5104D002400BF04F1B000B5
:10228000C2B20021782000F0ADFE00221146782075
:1022900000F0A8FE10220021782000F0A3FE05EB3C
:1022A000C41280234021782000F0ACFE641CE4B20C
:1022B000082CE3D370BD00004000002070472DE9DA
:1022C000F05F0D46DDE90CA7DDE90A8B41711C4684
:1022D00091460646422100F093F8122802D00020D1
:1022E000BDE8F09F0121304600F032F951463046FA
:1022F00000F001FA5946304600F062F9494630468E
:1023000000F086F81D21304600F07AF8290141EAF4
:1023100048003843C2B21D21304600F09EF91E210C
:10232000304600F06DF800F0080040EA0410C0B23A
:1023300040F004021E21304600F08FF964221F2174
:10234000304600F08AF9062C19D00A22372130468F
:1023500000F083F93121304600F052F800F0F80225
:1023600031213046D21C00F078F930460E9900F049
:10237000C5F830460F9900F061FE0120B0E70C224D
:102380003721304600F069F93121304600F038F845
:1023900000F0F80231213046521DE4E710B501216A
:1023A00000F02EF8000601D5012010BD002010BD60
:1023B000F8B5054600680C461E4617460021083051
:1023C00000F004FC04F07F008DF80000286864230E
:1023D000012280696946FFF74AF8002408E028686E
:1023E0003919642380690122FEF794FF641CE4B26A
:1023F000B442F4D328680121083000F0E7FBF8BDAF
:1024000008B501236A46FFF7D3FF9DF8000008BD19
:1024100070B50C460546FFF7C1FF012852D16A7915
:10242000092A11D0082A21D0072A1FD0062A1DD038
:10243000052A27D0042A25D0032A23D0022A21D016
:10244000012A1FD052B33DE002223621284600F077
:1024500004F97F223A21284600F0FFF8312128466E
:10246000FFF7CEFF40F08002312128E031212846DD
:10247000FFF7C6FF00F080023121284600F0EDF89A
:10248000402216E031212846FFF7BAFF00F0800213
:102490003121284600F0E1F844220AE031212846A3
:1024A000FFF7AEFF00F080023121284600F0D5F89A
:1024B00048222F21284600F0D0F80022302128465B
:1024C00000F0CBF80121284600F06BF80A480621FD
:1024D00000EBC424220C284600F0BFF8C4F3072206
:1024E0000721284600F0B9F8E2B22846BDE870405E
:1024F000082100F0B2B8000000406C0070B50C4636
:102500000546062900D9FEE7012100F04AF84FF000
:1025100026012846B4B1FFF773FF00F0FB02262125
:10252000284600F09AF80C212846FFF769FF00F0D2
:10253000070040EA4410C2B20C212846BDE87040B2
:1025400000F08BB8FFF75CFF40F004022621F4E7AF
:1025500010B54173012904464FF0010113D0FFF774
:102560004FFF40061CD00021204600F01AF8012140
:102570002046FFF745FF00F07F022046BDE81040EF
:10258000012100F06AB8FFF73BFF0021204600F070
:1025900008F801212046FFF733FF40F08002ECE706
:1025A00010BD70B50C4605460121FFF729FF00F06C
:1025B000F80222430121284600F04FF8AC7370BDA9
:1025C00070B50C460646FFF7E9FE05460121304688
:1025D000FFF7E7FF220A012D01D04DB113E0062CD1
:1025E00011D32021304600F038F8E2B2212105E075
:1025F0002521304600F031F8E2B22621304600F0C5
:102600002CF8012070BD002070BDF8B505460068AB
:102610000C461E4617460021083000F0D7FA44F059
:1026200080008DF8000028686423012280696946D3
:10263000FEF71DFF002408E028683919642380692B
:102640000122FEF714FF641CE4B2B442F4D32868FC
:102650000121083000F0BAFAF8BD07B5012302AA3B
:10266000FFF7D3FF0EBD10B504460121FFF799FF18
:10267000607B012804D12046BDE8104000F013B86B
:1026800010BD10B504460068002100F09FFA0A2032
:10269000FDF738FF0121206800F098FABDE81040EE
:1026A0000A20FDF72FBF10B50446407B012821D139
:1026B00040212046FFF7A4FE00F03F0240212046C3
:1026C000FFF7CBFF204600F0EDFCFF222221204641
:1026D000FFF7C3FF00220F212046FFF7BEFF0022B5
:1026E0000D212046FFF7B9FF2046BDE81040052127
:1026F000FFF757BF10BD2DE9F041A1F12D050C46A4
:102700000746C42D03D314B10020BDE8F081012198
:10271000FFF747FFDCB14B2D03D8052095FBF0F008
:10272000C6B2A4F182006E2804D80A201E34B4FB7D
:10273000F0F0C6B20B213846FFF762FE00F0E0026F
:1027400032430B213846FFF788FF0120DDE70B21DC
:102750003846FFF755FE00F0DF02F2E7FEF734BA25
:1027600030B58FB028216846FDF7F5FC14210AA882
:10277000FDF7F1FC01210804CDE9001000240294CA
:1027800002250491CDE907504FF4E0100990684606
:10279000FEF79EFB0F20CDE90A056802CDE90C404B
:1027A00002210AA80E94FEF7A7FA0FB030BD7047B9
:1027B00070B5446A2068406994F83910C0F3C010BD
:1027C0000025212904D118B1E584204600F046F8FF
:1027D0002068406994F83A10C0F38010222904D18F
:1027E00018B1E585204600F02BF8E06B40F01000B2
:1027F000E0632046FEF7F3FF70BD10B50146406A66
:1028000009680968890613D40021C1850168CA686E
:1028100022F48072CA6001684A6922F001024A61AA
:1028200001684A6922F040024A61202180F83A108A
:10283000FFF7AEF810BD10B5406AFFF7AAF810BD5B
:102840000168CA6822F49072CA6001684A6922F07D
:1028500001024A61202180F83A1070470168CA6875
:1028600022F0C002CA60202180F8391070470000B1
:1028700070B5044600680169E26821F440511143D3
:1028800001612169A0680843616908432168CA6839
:1028900041F20C639A430243CA6020684169A2690D
:1028A00021F44071114341611E492068884202D1E0
:1028B000FEF7C8FA01E0FEF7B5FA00EBC00101EB44
:1028C0000012606864218000B2FBF0F3B3FBF1F307
:1028D0006FF018067343B2FBF0F5B2FBF0F605EBB0
:1028E0008305322303EB0515B5FBF1F5B6FBF1F6D5
:1028F00005F0F00505EB0615B2FBF0F6B2FBF0F0C3
:10290000B0FBF1F06FF01802504306EB800003EBD0
:102910000010B0FBF1F0216800F00F00284488603F
:1029200070BD0000003801402DE9F041984617467F
:102930000E460446069D1DE0681C1BD02DB1FDF718
:10294000FFFEA0EB0800A84214D92068C16821F45A
:10295000D071C1602068416921F0010141612020EE
:1029600084F8390084F83A00002084F83800032005
:10297000BDE8F0812068006836EA000004D000203D
:10298000B842D9D00020F3E70120F9E710B5044997
:10299000044800F00BF804490120087010BD000045
:1029A00068060020280600202A0000200A46016848
:1029B00081B00B68DB060CD50B6849680091116883
:1029C0000B6823F001030B600146104601B0FDF7D0
:1029D000F7BB01B07047FEE70FB4084B10B504A970
:1029E00002AA039800F02CF8044602A9002000F087
:1029F000D1F8204610BC5DF814FB0000952B0008B0
:102A00000907090E002804DB00F1E02080F800141B
:102A1000704700F00F0000F1E02080F8141D7047AF
:102A200002E008C8121F08C1002AFAD17047704797
:102A3000002001E001C1121F002AFBD170470000F5
:102A40002DE9FF4F89B09B460446002506E0252866
:102A50000BD05A460B999047641C6D1C20780028B7
:102A6000F5D10DB02846BDE8F08F0027B846012209
:102A7000474900E0074314F8013F203B02FA03F006
:102A80000842F7D120782E2819D114F8010F47F009
:102A900004072A280ED06FF02F022078A0F1300111
:102AA00009290CD808EB880102EB410100EB010871
:102AB000641CF2E70A98641C50F8048B0A90207892
:102AC0000028CED0642808D0692806D075281ED0EA
:102AD0005A460B9990476D1C58E00A994FF00A0925
:102AE00001C90A91002802DA40422D2102E039058D
:102AF00004D52B218DF82010012103E0F90704D023
:102B00002021F7E78A4608AE0DE00021FAE70A998E
:102B10004FF00A0901C90A91F7E74946FDF726FB7C
:102B2000303106F8011D0028F7D1ADEB060000F1A9
:102B30002009780701D44FF00108C84502DDA8EB51
:102B4000090000E000208046002706E008A85A4659
:102B5000C05D0B9990476D1C7F1C5745F6DB04E068
:102B600030205A460B9990476D1CB8F10001A8F12E
:102B70000108F5DC05E016F8010B5A460B99904761
:102B80006D1CB9F10001A9F10109F4DC641C65E7D1
:102B9000092801000A68531C0B6010707047000080
:102BA00030B50021084B0A46455C9C5CAC4203D121
:102BB000491C89B2445C24B1521C92B2FF2AF3D959
:102BC00030BDC8B230BD000040040020012905D04E
:102BD00000220188406889B2FDF7ACBD0122F8E708
:102BE000C6B0FDF7F9FFFFF7BBFDFFF775F8FFF77C
:102BF0005DF8FFF733F9FFF70DF9FFF7EBF8C84978
:102C0000C64F4FF00109C748CF60C1E901098015DF
:102C10000860C548886101F11C000160FFF731FDC3
:102C20004FF480413846FDF77DFD79143846FDF7B5
:102C300079FDDFF8F8B20B2102258BF8031007218C
:102C400064268BF804104FF0080A002409E000BF46
:102C50004FF40051B648FDF765FD4FF4FA70FDF7EB
:102C600051FC1420CDE90450AD48CDE90264CDE912
:102C7000005AD0460B23302207211C30FFF71FFBE0
:102C80000028E5D0FFF7DEF9FFF7A2F9A9480068B0
:102C9000C16841F01001C160A74801680A6842F0AC
:102CA00002020A600068016821F004010160FA2252
:102CB000A249A048FEF720FE14210846FFF7BCF900
:102CC00001229F499FA0FFF7C1FAFFF7D3FA012223
:102CD00051039748FDF72EFD4FF4804A01225146DB
:102CE0003846FDF727FD00224FF400513846FDF726
:102CF00021FD6420FDF706FC002251463846FDF711
:102D000019FD012251033846FDF714FD6420FDF73B
:102D1000F9FB012251463846FDF70CFD00224FF425
:102D200000513846FDF706FD6420FDF7EBFB01225C
:102D300051033846FDF7FEFC4FF47A70FDF7E2FBD5
:102D400077481C30FFF78FFC4FF480727F4906A84C
:102D5000FDF7E8F9DFF8E4A130215F468AF80110B9
:102D6000387801282DD0B8780128F9D16C48FA7844
:102D700077A10C38FFF730FE01210846FFF75CF918
:102D80000022744974A0FFF761FA65480122714975
:102D90000C38FFF75BFA387900287CD001287BD00B
:102DA00002287AD0032879D0042878D0052877D053
:102DB000062876D0072875D0082874D0092873D043
:102DC00098E09AF8000030280BD187F80190002293
:102DD0004FF400515648FDF7ADFC41F28830FDF745
:102DE00091FB787801286AD19AF8010054280FD114
:102DF0004B480D21163832220170542141709AF847
:102E00000210817006A9323000F09CF98AF8004067
:102E10009AF80100432802D04C280ED049E04048DF
:102E20000D211638022201704321417001463230D3
:102E300000F088F98AF800403BE0DFF8E4B00D20AC
:102E4000ABF1160B4C228BF800008BF801209AF89E
:102E50000200042200F00F008BF802009AF8031021
:102E600001F00F01891D8BF80310F9703871594674
:102E700001F1320000F066F98AF800400520CDE942
:102E80000450CDE90264CDE900589BF803309BF86B
:102E90000210302209E016E017E018E019E01AE00D
:102EA0001BE01CE01DE01EE01FE00BF13200FFF70D
:102EB00006FA012251031E48FDF73CFC7C703C7071
:102EC00087F8029052E725A110E027A10EE029A182
:102ED0000CE02BA10AE02DA108E02FA106E031A112
:102EE00004E033A102E035A100E037A10C480C3822
:102EF000FFF772FD01212A20FFF79EF800221549F5
:102F000034A0FFF7A3F90648012212490C38FFF755
:102F10009DF9FFF7AFF9BC7022E70000000C0140FB
:102F20005005002000080140D00500202A000020A4
:102F30000010014028060020680600204004002000
:102F4000200000204554554D53415400E8460008E8
:102F5000256420001800002053463A00372E3830F0
:102F6000204B487A2000000031302E3430206B484E
:102F70007A00000031352E3630206B487A00000090
:102F800032302E3830206B487A00000033312E3238
:102F900035206B487A00000034312E3730206B48E2
:102FA0007A00000036322E3530206B487A0000005F
:102FB0003132352E30206B487A0000003235302E09
:102FC00030206B487A0000003530302E30206B48BE
:102FD0007A00000042573A000148401EFDD1704778
:102FE00090D003001CB502238DF804100A21009133
:102FF0008DF80520014601AA0148FDF721FD1CBD01
:103000007C05002070B5C2B000248DF8041001A921
:1030100004E0155D0E19641C7570E4B29C42F8D38F
:103020000A2100915B1C01469BB201AA0248FDF7F0
:1030300007FD42B070BD00007C05002070B58D1EFC
:103040000C460646102D02D3142C00D0FEE70121B9
:10305000FFF7A7FA0F2D11D805F00F0040F08002FE
:1030600009213046FFF7F9FA4D213046FFF7C8F93C
:1030700000F0F8024D213046121D0EE0142C10D144
:103080008F2209213046FFF7E8FA4D213046FFF73D
:10309000B7F940F007024D213046BDE87040FFF718
:1030A000DCBA70BD10B50446407B01280DD0002865
:1030B0000ED1FF223E212046FFF7CFFAFF223F210B
:1030C0002046BDE81040FFF7C8BAFF221221F7E7FB
:1030D00010BD70B50446407B15460E4601281FD032
:1030E00000282DD140212046FFF78AF900F03F0249
:1030F00040212046FFF7B1FA2046FFF7D3FF2A46CA
:1031000000212046FFF7A9FA2B463246002120462F
:10311000FFF77BFA2046BDE870400321FFF741BA74
:103120002046FFF7BFFF2A4622212046FFF795FAE7
:1031300000220E212046FFF790FA00220D21E0E741
:1031400070BD00002DE9F0410F46144605460121EF
:10315000FFF727FA687B4FF4005601280FD00028AC
:103160004CD1E2B239462846FFF7B3FFFDF7E8FA43
:10317000234C002231462046FDF7DCFA2AE0E2B279
:1031800039462846FFF7A5FFFDF7DAFA1D4F002262
:10319000344631463846FDF7CDFA4FF4FA7603E06F
:1031A0000220401CB042FCDB12212846FFF728F920
:1031B0000007F5D5012221463846FDF7BBFA28461F
:1031C000FFF770FF2846BDE8F041FFF74CBA012039
:1031D000FDF798F93F212846FFF712F90007F6D5C9
:1031E000012231462046FDF7A5FA2846FFF75AFF8F
:1031F0002846BDE8F0410121FFF7D3B9BDE8F081D1
:1032000000100140000C0140000000000000000020
:10321000000000000000000000000000001000108E
:10322000001000100010001000000010000000004E
:103230000028002800280000000000000000000016
:103240000000000000240024007C00240048007CD2
:1032500000480048000000000038005400500038CA
:1032600000140054005400380010000000200054E6
:10327000005800300028005400140008000000002E
:1032800000100028002800100034004800480034D6
:1032900000000000001000100010000000000000FE
:1032A00000000000000000000008001000200020C6
:1032B0000020002000200020001000080020001046
:1032C000000800080008000800080008001000209E
:1032D000001000380010002800000000000000006E
:1032E000000000000000000000100010007C001032
:1032F00000100000000000000000000000000000BE
:10330000000000000000001000100010000000008D
:103310000000000000000038000000000000000075
:10332000000000000000000000000000000000108D
:10333000000000000008000800100010001000103D
:103340000020002000000000003800440044005429
:103350000044004400440038000000000010003029
:1033600000500010001000100010001000000000BD
:103370000038004400440004000800100020007CD5
:10338000000000000038004400040018000400049D
:103390000044003800000000000800180028002841
:1033A0000048007C0008000800000000007C00408D
:1033B00000400078000400040044003800000000D1
:1033C00000380044004000780044004400440038C5
:1033D00000000000007C0004000800100010002025
:1033E00000200020000000000038004400440038A5
:1033F000004400440044003800000000003800444D
:1034000000440044003C0004004400380000000078
:10341000000000000010000000000000000000108C
:10342000000000000000000000000010000000008C
:10343000000000100010001000000000000C003020
:1034400000400030000C0000000000000000000000
:103450000000007C0000007C000000000000000074
:103460000000000000600018000400180060000068
:1034700000000000003800440004000800100010A4
:10348000000000100000000000380044004C005410
:10349000005C0040004000380000000000100028E0
:1034A000002800280028007C0044004400000000A0
:1034B0000078004400440078004400440044007850
:1034C0000000000000380044004000400040004080
:1034D0000044003800000000007000480044004430
:1034E000004400440048007000000000007C0040E0
:1034F0000040007C004000400040007C00000000D4
:10350000007C004000400078004000400040004047
:10351000000000000038004400400040005C00440F
:103520000044003800000000004400440044007CD7
:103530000044004400440044000000000038001033
:1035400000100010001000100010003800000000F3
:1035500000040004000400040004000400440038D7
:103560000000000000440048005000600050004887
:1035700000480044000000000040004000400040BF
:10358000004000400040007C000000000044006C4F
:10359000006C00540044004400440044000000005B
:1035A00000440064006400540054004C004C00448B
:1035B000000000000038004400440044004400447F
:1035C000004400380000000000780044004400443B
:1035D0000078004000400040000000000038004437
:1035E000004400440044004400540038000400003B
:1035F000007800440044004400780048004800443B
:1036000000000000003800440040003000080004C2
:103610000044003800000000007C00100010001082
:1036200000100010001000100000000000440044D2
:1036300000440044004400440044003800000000FE
:103640000044004400440028002800280010001016
:103650000000000000440044005400540054006C7A
:103660000028002800000000004400280028001066
:10367000001000280028004400000000004400441E
:1036800000280028001000100010001000000000AA
:10369000007C000400080010001000200040007CA6
:1036A00000000000001800100010001000100010B2
:1036B0000010001000100018002000200010001062
:1036C000001000100008000800000000003000108A
:1036D000001000100010001000100010001000304A
:1036E0000010002800280044000000000000000036
:1036F00000000000000000000000000000000000CA
:1037000000000000000000FE00200010000000008B
:1037100000000000000000000000000000000000A9
:1037200000380044003C0044004C0034000000001D
:103730000040004000580064004400440064005809
:10374000000000000000000000380044004000407D
:103750000044003800000000000400040034004C65
:1037600000440044004C0034000000000000000051
:1037700000380044007C0040004400380000000095
:10378000000C0010007C0010001000100010001051
:1037900000000000000000000034004C0044004421
:1037A000004C0034000400780040004000580064E1
:1037B00000440044004400440000000000100000E9
:1037C0000070001000100010001000100000000039
:1037D0000010000000700010001000100010001019
:1037E000001000E000400040004800500060005021
:1037F000004800440000000000700010001000109D
:103800000010001000100010000000000000000078
:10381000007800540054005400540054000000008C
:1038200000000000005800640044004400440044CC
:103830000000000000000000003800440044004484
:103840000044003800000000000000000058006440
:1038500000440044006400580040004000000000A4
:103860000034004C00440044004C003400040004C8
:10387000000000000058006400400040004000408C
:103880000000000000000000003800440030000884
:1038900000440038000000000020002000780020D4
:1038A00000200020002000180000000000000000A0
:1038B0000044004400440044004C00340000000078
:1038C00000000000004400440028002800280010E8
:1038D0000000000000000000005400540054006C80
:1038E000002800280000000000000000004400281C
:1038F000001000100028004400000000000000003C
:10390000004400440028002800100010001000604F
:1039100000000000007C0008001000200040007C37
:10392000000000000018001000100010002000200F
:1039300000100010001000180010001000100010FF
:1039400000100010001000100010001000300010D7
:1039500000100010000800080010001000100030D7
:103960000000000000000074004C00000000000097
:103970000000000000000000000000000000000047
:103980000000000000000000000000000000000037
:1039900000000000000000000000000C000C000C03
:1039A000000C000C000C000C000C000C000C000CB7
:1039B0000000000C000C0000000000000000001BD4
:1039C000001B001B001B001B00000000000000008B
:1039D00000000000000000000000000000000000E7
:1039E00000008019801980198019C07FC07F80195C
:1039F0000033C07FC07F003300330033003300004A
:103A0000000000000000001E003F8075806500740B
:103A1000003C001E00078005806580658075003FC2
:103A2000001E0004000400000000007000D840D810
:103A3000C0D880D900730006000C801BC036C06659
:103A4000C046C00680030000000000000000001E09
:103A5000003F003300330033001E000CC03CC06642
:103A6000806380618063C03E801C00000000000015
:103A70000000000C000C000C000C000C000000000A
:103A80000000000000000000000000000000000036
:103A90000000000080000001000300060006000492
:103AA000000C000C000C000C000C000C00040006C4
:103AB0000006000300018000002000100018000C28
:103AC000000C0004000600060006000600060006C2
:103AD0000004000C000C0018001000200000000C76
:103AE000002D003F001E0033000000000000000019
:103AF00000000000000000000000000000000000C6
:103B0000000000000000000C000C000C000CC0FFC6
:103B1000C0FF000C000C000C000C000000000000B6
:103B20000000000000000000000000000000000095
:103B30000000000000000000000000000000000C79
:103B4000000C000400040008000000000000000059
:103B500000000000000000000000001E001E000029
:103B60000000000000000000000000000000000055
:103B70000000000000000000000000000000000045
:103B8000000000000000000C000C0000000000001D
:103B90000000000300030003000600060006000604
:103BA000000C000C000C000C00180018001800009D
:103BB000000000000000001E003F003380618061B3
:103BC0008061806D806D8061806180610033003F25
:103BD000001E00000000000000000006000E001E95
:103BE0000036002600060006000600060006000655
:103BF0000006000600060000000000000000001E95
:103C0000003F807380618061800100030006000C2A
:103C1000001800300060807F807F000000000000FE
:103C20000000001C003E006300630003000E000E55
:103C300000038001800180618073003F001E00004E
:103C40000000000000000006000E000E001E001E16
:103C50000016003600360066807F807F0006000672
:103C600000060000000000000000007F007F0060F0
:103C700000600060006E007F8063800180018061D1
:103C80008073003F001E0000000000000000001EC6
:103C9000003F803380610060006E007F8073806130
:103CA000806180618033003F001E00000000000042
:103CB0000000807F807F8001000300030006000673
:103CC000000C000C000C0008001800180018000080
:103CD000000000000000001E003F806380618061E2
:103CE0000021001E003F8061806180618061003F93
:103CF000001E0000000000000000001E003F0073D6
:103D00008061806180618073803F801D800180615F
:103D10000073003F001E00000000000000000000D3
:103D2000000000000000000C000C0000000000007B
:103D3000000000000000000C000C0000000000006B
:103D4000000000000000000000000000000C000C5B
:103D500000000000000000000000000C000C000447
:103D60000004000800000000000000008000800344
:103D7000000E003800600038000E80038000000054
:103D80000000000000000000000000000000000033
:103D90000000807F807F00000000807F807F000027
:103DA0000000000000000000000000000000000013
:103DB0000000000000400070001C000780010007A8
:103DC000001C007000400000000000000000000027
:103DD0000000001F803FC071C060C000C0018003B0
:103DE0000007000E000C000C0000000C000C00008E
:103DF000000000000000001E003F803180718063E1
:103E0000806F806D806D806F806700600032003E43
:103E1000001C0000000000000000000E000E001B4F
:103E2000001B001B001B80318031803F803F8031B0
:103E3000C060C060C0600000000000000000007CA6
:103E4000007E0063006300630063007E007E006309
:103E5000806180618063007F007E000000000000C0
:103E60000000001E003F8031806100600060006043
:103E700000600060006080618031003F001E000033
:103E8000000000000000007C007F00638063806110
:103E90008061806180618061806100630063007E79
:103EA000007C0000000000000000807F807F006038
:103EB000006000600060007F007F006000600060C4
:103EC0000060807F807F0000000000000000807F95
:103ED000807F0060006000600060007F007F006005
:103EE00000600060006000600060000000000000F2
:103EF0000000001E003F80318061006000600060B3
:103F000080638063806180618031803F001E00009B
:103F1000000000000000806180618061806180613C
:103F20008061807F807F806180618061806180614D
:103F300080610000000000000000003F003F000C16
:103F4000000C000C000C000C000C000C000C000C11
:103F5000000C003F003F0000000000000000800156
:103F60008001800180018001800180018001800149
:103F7000806180618073003F001E0000000000002F
:103F80000000C0608061006300660066006C00781D
:103F9000007C00660066006380618061C060000094
:103FA0000000000000000060006000600060006031
:103FB0000060006000600060006000600060807F62
:103FC000807F0000000000000000C071C071C07B55
:103FD000C07AC06AC06AC06EC064C060C060C060A1
:103FE000C060C060C0600000000000000000807180
:103FF0008071807980798079806D806D806D806539
:104000008067806780678063806300000000000035
:104010000000001E003F003380618061806180618C
:1040200080618061806180610033003F001E00007C
:10403000000000000000007E007F806380618061DE
:1040400080618063007F007E00600060006000602F
:1040500000600000000000000000001E003F003370
:10406000806180618061806180618061806580673E
:104070000033803F401E0000000000000000007E72
:10408000007F8063806180618063007F007E0066C6
:104090000063006380618061C06000000000000078
:1040A0000000000E001F8031803100300038001EFB
:1040B00000078003806180618031003F001E0000A6
:1040C000000000000000C0FFC0FF000C000C000C4E
:1040D000000C000C000C000C000C000C000C000C80
:1040E000000C000000000000000080618061806121
:1040F00080618061806180618061806180618061B8
:104100008073003F001E0000000000000000C0603F
:10411000C060C060803180318031001B001B001BFB
:10412000001B000E000E000E000400000000000046
:104130000000C0C0C0C0C0C0C0C0C0C0C0CC804CA7
:10414000804C805E8052805280738061806100006C
:10415000000000000000C0C0806080610033003BB0
:10416000001E000C000C001E001F003B80718061CF
:10417000C0C00000000000000000C0C0806180617D
:1041800000330033001E001E000C000C000C000C5D
:10419000000C000C000C0000000000000000803F3C
:1041A000803F8001000300030006000C000C001893
:1041B000001800300060807F807F00000000000059
:1041C000000F000F000C000C000C000C000C000C89
:1041D000000C000C000C000C000C000C000C000C7F
:1041E000000F000F0000001800180018000C000C51
:1041F000000C000C00060006000600060003000389
:104200000003000000000000001E001E0006000663
:10421000000600060006000600060006000600066E
:104220000006000600060006001E001E0000000C2E
:10423000000C001E0012003300338061806100001A
:10424000000000000000000000000000000000006E
:10425000000000000000000000000000000000005E
:10426000000000000000000000000000000000004E
:10427000E0FF0000000000380018000C0000000003
:10428000000000000000000000000000000000002E
:10429000000000000000000000000000000000001E
:1042A0000000001F803F80618001801F803F80618F
:1042B0008063807FC03800000000000000000060C4
:1042C000006000600060006E007F8073806180612C
:1042D000806180618073007F006E0000000000003C
:1042E00000000000000000000000001E003F80737E
:1042F00080610060006080618073003F001E0000EC
:104300000000000000008001800180018001801D0C
:10431000803F807380618061806180618073803FB5
:10432000801D0000000000000000000000000000F0
:104330000000001E003F00738061807F807F00606E
:104340008071003F001E0000000000000000C00758
:10435000C00F000C000C807F807F000C000C000C54
:10436000000C000C000C000C000C00000000000011
:104370000000000000000000801D803F807380610D
:104380008061806180618073803F801D80018063D7
:10439000007F003E00000060006000600060006F71
:1043A000807F8071806180618061806180618061D7
:1043B0008061000000000000000000060006000010
:1043C0000000003E003E0006000600060006000653
:1043D00000060006000600000000000000060006BF
:1043E00000000000003E003E000600060006000639
:1043F000000600060006000600060046007E003C9F
:104400000000006000600060006080610063006682
:10441000006C007C0076006300638061C060000077
:10442000000000000000003E003E000600060006FE
:10443000000600060006000600060006000600064C
:104440000006000000000000000000000000000066
:10445000000080DDC0FFC0CEC0CCC0CCC0CCC0CC82
:10446000C0CCC0CCC0CC00000000000000000000A8
:10447000000000000000006F807F8071806180611B
:1044800080618061806180618061000000000000C7
:1044900000000000000000000000001E003F8073CC
:1044A00080618061806180618073003F001E000038
:1044B000000000000000000000000000006E007F0F
:1044C000807380618061806180618073007F006E95
:1044D000006000600060006000000000000000005C
:1044E000801D803F80738061806180618061807306
:1044F000803F801D8001800180018001000000005C
:104500000000000000000067803F003900300030EC
:1045100000300030003000300030000000000000AB
:1045200000000000000000000000001E803F8061CD
:104530000060007F803F80018061007F001E0000DE
:104540000000000000000000000800180018007FB4
:10455000007F001800180018001800180018801FAD
:10456000800F0000000000000000000000000000BC
:104570000000806180618061806180618061806114
:104580008063807F803D000000000000000000008C
:10459000000000000000C060803180318031001BCD
:1045A000001B001B000E000E0006000000000000B3
:1045B0000000000000000000000080DD80DD80DDE4
:1045C00000550055005500770077002200220000BA
:1045D00000000000000000000000000000008061FA
:1045E00000330033001E000C000C001E00330033AB
:1045F00080610000000000000000000000000000DA
:1046000080618061803100330033001B001B001B80
:10461000000E000E000E001C007C00700000000068
:10462000000000000000C07FC07F80010003000682
:10463000000C00180030C07FC07F000000000000A8
:104640008003800700060006000600060006000E34
:10465000001C001C000E00060006000600060006F6
:10466000800780030006000600060006000600061C
:10467000000600060006000600060006000600060A
:1046800000060006000600060038003C000C000C86
:10469000000C000C000C000E00070007000E000CC0
:1046A000000C000C000C000C003C00380000000066
:1046B000000000000000000000008038807F0047FC
:1046C00000000000000000000000000000000000EA
:1046D00000000000000000000102030406070809B2
:1046E0000000000001020304315F313233343536FB
:1046F0003720325F3132333435363720335F313251
:10470000333435363720345F313233343536372061
:10471000355F3132333435363720365F313233341A
:1047200035363720375F3132333435363720385F0E
:104730003132333435363720395F31323334353620
:10474000372031305F3132333435362031315F310B
:1047500032333435362031325F313233343536201E
:1047600031335F3132333435362031345F313233D7
:104770003435362031355F313233343536203136F9
:104780005F3132333435362031375F3132333435AF
:10479000362031385F3132333435362031395F31AC
:1047A00032333435362032305F31323334353620CF
:1047B00032315F3132333435362032325F31323389
:1047C0003435362032335F313233343536203234AB
:1047D0005F3132333435362032355F313233343560
:1047E00036203132333435000848000800000020FC
:1047F00040000000202A000848480008400000202F
:10480000A00A0000302A000800000000000000009C
:104810000000000000000000000000000000000098
:10482000070A0000083200080B1200007439000863
:104830000000000001000000010000001000000066
:08484000000000000024F40058
:04000005080000ED02
:00000001FF
