:020000040800F2
:1000000098750020DD010008AB4700083D3D000861
:10001000A9470008D1170008A754000800000000F5
:100020000000000000000000000000004501000882
:100030007B190008000000008901000861500008D9
:10004000F7010008F7010008F7010008F7010008B0
:10005000F7010008F70100087D190008851900085C
:10006000F7010008F7010008F7010008F701000890
:10007000F7010008F7010008F7010008D917000888
:10008000F7010008F7010008F7010008F701000870
:10009000F7010008F7010008F7010008F701000860
:1000A000F7010008F7010008F7010008F701000850
:1000B000F7010008F7010008DD500008F70100080B
:1000C000F7010008F7010008F7010008F701000830
:1000D000F701000859540008F7010008F70100086B
:1000E000F7010008F7010008F7010008F701000810
:1000F000F7010008F7010008F7010008F701000800
:10010000F7010008F7010008F7010008F7010008EF
:10011000F7010008F7010008F7010008F7010008DF
:10012000F7010008F7010008F7010008F7010008CF
:10013000DFF80CD001F0B2F8004800472969000848
:1001400098750020224B19680868B0E8F00F80F31A
:100150000988BFF36F8F4FF0000080F311884EF0D5
:100160000D0E70470000000006480068006880F32C
:10017000088862B661B6BFF34F8FBFF36F8F00DFA1
:1001800000BF00BF08ED00E0EFF30980BFF36F8F01
:100190000F4B1A6820E9F00F106008B54FF05000BF
:1001A00080F31188BFF34F8FBFF36F8F08F002FD0C
:1001B0004FF0000080F31188BDE808401968086816
:1001C000B0E8F00F80F30988BFF36F8F704700BF6E
:1001D00000010020EFF305807047000006488047CB
:1001E00006480047FEE7FEE7FEE7FEE7FEE7FEE71C
:1001F000FEE7FEE7FEE7FEE7DB50000831010008FE
:100200002DE9F0410024061B254671F1000605DAB0
:1002100001240027D0EB070067EB0101161E73F1E4
:10022000000605DA0027D2EB0702012567EB03037E
:1002300000F064FE86460E4617469C46AC4204D04B
:100240000025D0EB050E65EB010624B10020D2EBB2
:10025000000760EB030C704631463A466346BDE842
:10026000F081202A04DB203A21FA02F000217047B5
:1002700021FA02F3D040C2F120029140084319460E
:10028000704740EA01039B0703D009E008C9121F29
:1002900008C0042AFAD203E011F8013B00F8013B40
:1002A000521EF9D27047D2B201E000F8012B491E6C
:1002B000FBD270470022F6E710B513460A46044603
:1002C0001946FFF7F0FF204610BD30B505462A4617
:1002D0000B4612F8010B13F8014B08B1A042F8D0FD
:1002E0001CB1002802D06D1CF1E7284630BD421C2D
:1002F00010F8011B0029FBD1801A70470FB400B51C
:100300008DB010A909900B9000914FF0FF300A902A
:1003100000200C9005480690054807906A4609A8F9
:100320000F9900F051FE0DB05DF814FBE50F0008C9
:10033000031000082DE9FF5F1D464FF0FF3BD5E994
:10034000014691465F464FF00008A9697F1C01985D
:100350008847296A824688470028F6D1BAF1FF3FCC
:100360000CD024F4C064002E19DD600614D5BAF157
:100370002B0F09D0BAF12D0F0ED103E0584604B06F
:10038000BDE8F09F44F48064A9697F1C0198884708
:10039000761E8246002E02DDBAF1300F03D0B9F18D
:1003A000000F26D032E0A969761E44F400747F1C49
:1003B000019888478246002E05DDBAF1780F06D0F5
:1003C000BAF1580F03D0B9F1000F10D01EE0B9F107
:1003D000000F02D0B9F1100F18D1A969761E24F4CC
:1003E00000747F1C019888478246102002E0082094
:1003F00000E00A20814609E008FB0908A969761E89
:1004000044F400747F1C019888478246002E05DD65
:100410004946504600F0C4FD0028EDDAE96901982C
:100420008847A00502D46FF00100A8E7E00725D1B6
:10043000600613D5600502D5C8F1000000E0404613
:1004400029680A1D2A600968220501D5087015E08F
:10045000220701D5088011E008600FE02868011D1F
:1004600029600068210502D580F8008006E0210798
:1004700002D5A0F8008001E0C0F8008038467EE791
:100480002DE9FF5FD2E901A74FF000089169994675
:100490001446DDF838B0464601988847054659EAC3
:1004A0000B0005D009E0A169761C01988847054634
:1004B000216A284688470028F5D1681C03D05FEAE6
:1004C000CA7005D015E04FF0FF3004B0BDE8F09FD2
:1004D0002068011D2160D0F800800AE05FEACA7040
:1004E00001D108F8015BA169761C7F1E019888473D
:1004F0000546002F1ADD681C18D0B9F1000F0DD089
:10050000E81705EBD060421120F01F0059F82210C7
:100510002A1A012090400142E0D107E0BBF1000F10
:10052000DCD1216A284688470028D7D0E1690198A4
:100530008847BBF1000F07D1002E05DD5FEACA70C6
:1005400002D1002188F80010A068B84203DDBBF199
:10055000000F03D017B16FF00100B6E73046B4E7E3
:100560002DE9FF4F087883B09946FF2805D0491C34
:100570002D2804D00024002008E000200BE00124F6
:10058000F9E700EB800003EB4000491C0B78FF2BE0
:10059000F7D104B1404200230293147819461D4656
:1005A0002D2C01D02B2C04D1521C2D2C13D0002427
:1005B0000294AA461478FF2C0FD00A25A3FB0578D5
:1005C00001FB05814FF0000C03FB0C11521CE319D9
:1005D0004AEB0101EEE70124EAE7814453EA010016
:1005E00002D019F5C87F06DA03980021C0E900118E
:1005F00007B0BDE8F08F0025AE4E2F46DFF8B88279
:10060000184600F00EFECDE90001B9F1000002DA53
:10061000C9F1000400E004460023A74A1AEB030BCB
:1006200042EB045A12E0E00707D02A463346384628
:10063000414600F0C0FA074688462A46334610462F
:10064000194600F0B8FA05460E466410002CEAD1AF
:10065000DDE90001B9F1000F5A46534606DA00F011
:100660001CFB3A46434600F018FB05E000F0A3FAF5
:100670003A46434600F09FFA029A0AB181F00041DF
:10068000039AC2E90001B3E72DE9FF4F1F468DB081
:10069000D7E901464FF0FF382E2045464FF00009BC
:1006A0000B90B9696D1C0E988847396A8246884755
:1006B0000028F6D1BAF1FF3F0AD024F4D064002E0E
:1006C00011DDBAF12B0F08D0BAF12D0F0BD102E0DA
:1006D000404611B08DE744F48064B9696D1C0E98F2
:1006E00088478246761E6946600501D52D2000E0C8
:1006F0002B208DF8000001F1010B0DF1200809E01D
:10070000B9696D1C0E98884782460F9844F40074AE
:10071000761E0560002E02DDBAF1300FF0D00B9985
:100720008A453ED144F0800406E00F99681CA9F187
:10073000010944F400740860B9696D1C761E0E98B6
:10074000884782463028F0D02BE00B998A4505D1A6
:10075000200603D444F08004761E18E0504605F0CD
:1007600039F808B30DF11301761E44F400748B457B
:1007700008D2AAF130000BF8010B200607D5A9F129
:10078000010003E0200602D409F101008146A00522
:1007900002D50F99681C0860B9696D1C0E988847CE
:1007A0008246002ED1DC53E0002E51DDBAF1650FF8
:1007B00002D0BAF1450F4BD1A00549D5B9696D1CDE
:1007C00024F44074761E0E9888478246002E0CDD75
:1007D0002B2804D0BAF12D0F07D144F48074B969E5
:1007E0006D1C0E9888478246761EE00501D52D21A6
:1007F00000E02B2108F8011BCDF82C8021E00DF141
:100800002901761E44F4007488450CD2AAF1300008
:1008100010F0FF0088F8000002D10B99884509D933
:1008200008F1010806E0E00501D5244801E042F2A4
:100830000F708146B9696D1C0E98884782460F98E3
:100840000560002E04DD504604F0C4FF0028D6D118
:10085000F9690E988847FF208BF8000088F800009F
:100860000020069007904B466A4608A906A8FFF7A5
:1008700077FEA00502D46FF001002AE714F0240FE0
:100880000AD0E00714D1DDE906123868031D3B6089
:100890000068C0E900120BE0DDE9060100F0FCFA97
:1008A0000146E00704D13868021D3A600068016023
:1008B00028460EE7000014400000F03FF1D8FFFF8B
:1008C000F0B480EA0102D40F4200B2EB410F02D231
:1008D0000246084611464A0042D0C30DDDB2C1F3BC
:1008E000C752AD1A202D35DAC1F3160141F40002CA
:1008F00004B15242C5F1200602FA06F12A41104421
:10090000B3EBD05F23D0C4B1012DA0EBC35009DC01
:10091000F0BC4FF0004202EAC352DBB200F5000027
:1009200000F089BB400000F1807000EBC350A0F1E3
:10093000807040EAD170490009E0490841EAC0717D
:10094000A0EBC35000F50000400800EBC350F0BC22
:1009500000F068BB6142012202EB4101001BF6E797
:10096000F0BC704781F00041AAE780F00040A7E7A3
:1009700080EA010210B502F00043400022D04A0094
:100980001FD0010E01EB1261C0F35600C2F35602F4
:1009900040F4000042F40002A0FB022000047F3972
:1009A000140400D0401C50EA124001D44000491EFB
:1009B000C2B20C0604EBD010401C4008802A02D0C2
:1009C00003E0002010BD20F00100002900DA002023
:1009D000184310BD30B480EA010202F0004530F047
:1009E000004221F0004013D090B1C30DD40DC2F3EA
:1009F0001601C0F31600E41A41F4000140F40002AD
:100A00007D34914201D3641C00E04900002C02DADD
:100A100030BC002070474FF400000023914201D306
:100A2000891A034340084FEA4101F7D151B191427D
:100A300002D14FF0004105E002D24FF0010101E088
:100A40006FF0010103EBC450284430BC00F0EABA57
:100A5000420005D0C0F3C7525242914201DC00204F
:100A6000704700EBC15070472DE9FE4F804681EA88
:100A70000300C00F0C46009021F0004123F0004518
:100A8000B8EB0200A94105D24046214690461C46DB
:100A90000B46024623F00040104347D0270DC7F312
:100AA0000A00C3F30A510290401A019040286BDA01
:100AB000C3F3130040F4801B0098924620B100233A
:100AC000D2EB030A63EB0B0B01985946C0F14002CD
:100AD000504600F044FA06460D4650465946019AE3
:100AE00000F04CFA10EB08006141002487EA115233
:100AF00084EAE7731A4340D0009A62B3019A012A4C
:100B00004FEA075215DC001B61EB02014FF0004277
:100B100002EA0752CDE90042001C41F5801132463D
:100B20002B4600F0C5FA03B0BDE8F08F40462146E1
:100B3000F9E7001B61EB0201001C41F5801300186E
:100B40005B412018A2F5001747EB030140EAD5707E
:100B5000B6196D4111E06D084FEA360645EAC075D9
:100B60004FEA0752001B61EB0201001C41F58011A6
:100B700049084FEA30000019514132462B4603B074
:100B8000BDE8F04F00F085BA009801224000002334
:100B9000D0EB020263EBE073009821464FEAE07469
:100BA000B8EB000061EB0401E9E783F000435BE789
:100BB00081F0004158E72DE9FE4F81EA030404F07B
:100BC000004421F0004100944FF0000B23F000435B
:100BD00050EA01045ED052EA03045BD0C3F30A5426
:100BE000C1F30A552C44A4F2F3340194A0FB02543F
:100BF000C1F3130141F48011C3F3130343F48013D1
:100C000001FB024400FB034E840A970A44EA815424
:100C100047EA8357A4FB076802958D0A05FB078501
:100C20004FEA932C04FB0C542705029D4FEA06580B
:100C300047EA1637B5EB08056EEB070C870E920EE8
:100C400047EA811742EA8312A7FB0201B6EB0B01C8
:100C500064EB00042B0D43EA0C335E1844EB1C508C
:100C6000DA465146E7FB0201C5F313044FEA0B33A2
:100C700043EA14534FEA0432019C43EA0603A4F109
:100C80000C040294009CCDE900B400F011FA03B00A
:100C9000BDE8F08F00200146F9E72DE9F04D81EA2B
:100CA000030404F0004B21F0004514464FF0000A05
:100CB00023F0004150EA050220D054EA01021DD081
:100CC000C5F30A570246C5F31303C1F31300C1F37A
:100CD0000A5640F4801543F48013A7EB0608101B56
:100CE000D64608F2FD3873EB050002D308F101087F
:100CF00001E092185B41B8F1000F03DA00200146D1
:100D0000BDE8F08D00204FF48011064684460EE0C9
:100D1000171B73EB050705D3121B63EB0503064393
:100D20004CEA010C49084FEA300092185B4150EA46
:100D30000107EDD152EA030012D082EA040083EAEF
:100D40000501084305D0101BAB4106D20122002348
:100D500006E000224FF0004302E06FF00102531062
:100D60001AEB06004CEB085110EB0A0041EB0B01AB
:100D7000BDE8F04D00F08DB9C10F80EAE070084485
:100D8000CA079623002100F056B996230022114687
:100D900000F051B9F0B4CA17CB0F50405140C618FB
:100DA00041F100054FEAC372314628004FF0960327
:100DB00003D0B623F0BC00F03EB930460021F9E77D
:100DC0000EB540F2334102910021CDE900110A46EF
:100DD0000B4600F06DF903B000BD00F0004220F0BA
:100DE0000040C10DC0F3160040F400007F2901DA75
:100DF00000207047962903DCC1F19601C84001E04C
:100E000096398840002AF4D04042704720F00040D4
:100E1000C10DC0F3160040F400007F2901DA002064
:100E20007047962903DCC1F19601C8407047963996
:100E30008840704770B5C1F30A5201F000450024A4
:100E4000C1F3130140F2FF3341F480119A4201DAF9
:100E5000002070BD40F233439A42A2F2334203DCD9
:100E60005242FFF7FEF900E090402C43F1D040429F
:100E700070BD00F0004230F000400AD0C10D01F515
:100E80006071C0F3160042EA0151C20840071143E5
:100E9000704700200146704701F0004330B421F054
:100EA000004150EA010206D00A0DA2F56072C1F3BA
:100EB0001301002A02DC30BC00207047440F44EAD2
:100EC000C104C100E01830BC00EBC25000F0AAB869
:100ED00030B50B46014600202022012409E021FA0A
:100EE00002F59D4205D303FA02F5491B04FA02F507
:100EF0002844151EA2F10102F1DC30BD2DE9F05F9E
:100F00000546002092469B46884606468146402478
:100F10001BE02846414647462246FFF7A2F95346C2
:100F20005A46C01A914110D311461846224600F085
:100F300016F82D1A67EB01084F46224601200021C2
:100F400000F00DF817EB00094E41201EA4F101043A
:100F5000DFDC484631462A464346BDE8F09F202A5A
:100F600004DB203A00FA02F1002070479140C2F100
:100F7000200320FA03F3194390407047202A06DB30
:100F8000CB17203A41FA02F043EAE07306E041FA57
:100F900002F3D040C2F12002914008431946704745
:100FA0003A2800D2303820F02002412A01D3A2F1A1
:100FB0003700884201D34FF0FF3070470268114478
:100FC0001378016018467047D160044951610449A3
:100FD000116200211161114600F078B9BD0F0008BF
:100FE000C1120008426842B1016811F8013B23B107
:100FF000521EC0E90012184670470121C160881EC8
:10100000704742685AB1C368016843B983688B422C
:1010100005D0491E521CC0E90012002070474FF055
:10102000FF3070470029A8BF7047401C490008BF27
:1010300020F00100704710B4B0FA80FC00FA0CF008
:1010400050EA010404BF10BC704749B1CCF1200440
:1010500021FA04F411FA0CF118BF012121430843CD
:10106000A3EB0C01CB1D4FEA00614FEA102042BFF9
:10107000002010BC704700EBC35010440029A4BFEF
:1010800010BC7047401C490008BF20F0010010BC94
:10109000704710B5141E73F1000408DA401C41F1CA
:1010A000000192185B411A4301D120F0010010BDEC
:1010B0002DE9F04D92469B4611B1B1FA81F202E062
:1010C000B0FA80F220329046FFF749FF04460F46FF
:1010D00040EA0A0041EA0B0153465A46084313D03E
:1010E000114653EA010019D0C8F140025046FFF7FB
:1010F000B8F805460E46504659464246FFF72FFFC0
:10110000084305D0012004E020463946BDE8F08DB3
:101110000020054346EAE0762C4337430A986305EE
:10112000E40AA0EB08000022FD0A44EA47540A3012
:1011300002D500200146E9E7010510196941DDE902
:10114000084500196941BDE8F04DA2E770B521F0EE
:10115000004303430CD0C1F30A550024D5EB04052A
:1011600064EB0403D617AD1AB34102DB002001463D
:1011700070BD201841EB025170BD2DE9FE4FC3F345
:101180000A5701F000450024C1F30A56C3F31303C4
:10119000C1F3130143F4801312EB020AA64641F493
:1011A0008011009543EB030CA7F1010B16E0B0EBA7
:1011B0000A0061EB0C01071E71F1000707DA4FF01E
:1011C0000008D0EB080085F0004568EB0101171A14
:1011D00073EB0107EBD3761E001849415E45F6DA42
:1011E00050EA010209D0CDE900E50022134602963B
:1011F000FFF75EFF03B0BDE8F08F20460099F9E7E6
:101200000EB5C10F80EAE0700844CA07002140F221
:1012100033438DE80E000A460B46FFF749FF03B043
:1012200000BD0EB540F2334202920022CDE9002209
:101230001346FFF73DFF03B000BDC1F30A52C1F3EF
:10124000130140F2FF3341F480119A4202DA002088
:101250000146704740F233439A42A2F2334202DC25
:101260005242FEF7FEBFFFF77ABE000030B5041E03
:1012700071F1000404DB4FF00044404264EB0101D3
:10128000141E73F1000405DB1C464FF0004352426C
:1012900063EB0403994208BF904230BD064C074DF2
:1012A00006E0E06840F0010394E807009847103436
:1012B000AC42F6D3FEF740FF98990008B8990008B1
:1012C000C0B24FF4F05100F0E9B900002DE9F34F3E
:1012D0008BB04FF0000801F10C000C464FF0010BF1
:1012E00046460DF1080A0190626901210198904774
:1012F000051E2DD0252D2CD0216A8847C0B16269EA
:10130000012101989047216A88470028F7D1411EA2
:1013100062690198904700E0761CA1690B988847A4
:10132000216A88470028F7D1E1690B988847DBE7F5
:10133000A1690B9888470746A84201D1761CD3E7DC
:10134000E1690B9888477F1C02D1B8F1000F6FD07C
:1013500046E1002762693D463946019890472A28B0
:1013600004D162690121019890470125DFF8849238
:101370006269012101989047A0F130010A290AD23F
:101380004F45E5DC07EB870100EB4107303FDFD439
:1013900045F01005ECE7E90601D46FF000476C2832
:1013A0000AD04C2814D0682815D06A280DD074288B
:1013B0001CD07A281AD01DE062690121019890475B
:1013C0006C2802D045F0040514E045F002050DE05C
:1013D00045F020050AE062690121019890476828DC
:1013E00002D045F0080505E045F400656269012179
:1013F00001989047C4E9015765283DD019DC582869
:101400007AD00CDC452837D004DC252826D04128AA
:1014100031D131E046282FD047282CD12CE05B2851
:1014200077D0612828D063287CD0642823D15AE063
:10143000D0E06F2848D008DC66281DD067281BD074
:10144000692821D06E2816D127E0702845D073284E
:1014500068D0752847D078280DD14DE0A1690B9848
:101460008847054625283FF469AFE1690B9888470E
:101470006D1C3FF46AAFB3E023466A466FF001008B
:101480000B99FFF701F99EE045F040006060A80766
:1014900023464FF0000236D43EE0E8077FF447AF22
:1014A0002068011D21600068290501D506701BE731
:1014B000290701D5068017E7A90703D5F117C0E969
:1014C000006111E706600FE745F040006060A80783
:1014D00023464FF0080216D41EE040F60E0125EA1E
:1014E0000100606016E045F040006060A8072346F8
:1014F0004FF00A0207D40FE045F040006060A807F3
:1015000008D5234610226FF001000B99AFF300803D
:1015100059E007E0234610226FF001000B99FEF717
:1015200009FF50E04FF000094F464B46632802D0B8
:101530005B2806D040E0E80601D40120A060012726
:101540003AE062690121019890475E2805D14FF089
:1015500001096269494601989047216939B900211A
:101560000A46534643F82120491C0829FADBB0B348
:10157000216969B9C11700EBD16253110AEB8301EC
:1015800022F01F02821A01200B68904003430B6077
:1015900062690121019890475D28E8D1B9F1000FF7
:1015A00009D00020514651F82020D24341F8202094
:1015B000401C0828F7DB02AB224600976FF00100C1
:1015C0000B99FEF75DFF00280CDA401C08D1BBF137
:1015D000000F05D04FF0FF300DB0BDE8F08FFFE7F2
:1015E0004046F9E7E90701D108F1010806444FF048
:1015F000000B79E6CCCCCC0C2DE9F04D00231A463B
:101600001B1A8A4103DB00200146BDE8F08DC1F3BF
:101610000A52C1F3130141F480154FF0000BD107BA
:1016200002D100186D41521E0027044640F2FF11FE
:10163000384601EB620A3E468046024600204FF4DF
:101640008011FEF70EFEC2197141BB1846EB010076
:10165000B4EB030C75EB000C04D3E41A65EB000546
:1016600017460E46241908F101006D4180463428C2
:10167000E3DDF91946EB0600091BA84103D24FF040
:10168000FF32134601E0002213461BEB070046EB36
:101690000A51BDE8F04DFFF7FCBC00007F2801D9DE
:1016A000002208E0064A02EB5002C007127800D17F
:1016B000120902F00F02012090400840704700001C
:1016C000E098000870B58C1810F8015B15F007035E
:1016D00001D110F8013B2A1106D110F8012B03E0CB
:1016E00010F8016B01F8016B5B1EF9D12B0705D4D3
:1016F0000023521E0DD401F8013BFAE710F8013B1C
:10170000CB1A921C03E013F8015B01F8015B521E37
:10171000F9D5A142D8D3002070BD0000F8B5174616
:101720000D461E4604468C22252102F01DFE60B99E
:101730002A462621204602F017FE30B946F08002E4
:101740002721204602F010FE08B10120F8BD01203B
:1017500005F0C6F94FF0FF3500950123064AD02168
:10176000206801F00FF8009533463A46D0212068F2
:1017700000F0E6FEF8BD000010000020F8B51446A9
:101780000D4606460C22252102F0EEFDF0B92A4650
:101790002621304602F0E8FDC0B9224663213046DA
:1017A00002F0E2FD90B980222721304602F0DCFDF4
:1017B00060B901236A4629463046FFF7AFFF28B9D2
:1017C0009DF80000A04201D10020F8BD0120F8BD25
:1017D000FEE7416002F0C8B8014800F06DBA0000B1
:1017E000704300202DE9F04F016804460868C043AB
:1017F00080077DD44F4D4F4E4E4F6815DFF834C1F2
:10180000DFF83091DFF82CA1DFF828B1783E643F93
:1018100002010302DFF820E1ACF1500CA9F13C0910
:10182000AAF1280AABF1140B4FF40018A94226D9EB
:10183000B1420DD0B94211D061451CD0494517D0F5
:10184000514517D0594501D1404614E0714501D1A9
:10185000022010E0384D1435A94201D120200AE0C1
:10186000354D2835A94206D033483C30814201D15C
:10187000104600E018463049091F08602AE0B142CE
:1018800012D0B94216D0614521D049451CD05145EE
:101890001CD0594501D1404619E0A94202D14FF070
:1018A000007014E0714501D1022010E0224D143582
:1018B000A94201D120200AE01F4D2835A94206D0B7
:1018C0001D483C30814201D1104600E018461949BC
:1018D0008039486020684068184DC0F5167068600F
:1018E0002A68C2F58071A960814200D9A86000E031
:1018F0001EE0A968124E0A44401AC5E9002070187B
:10190000E86010A004F0D4FE10490870686800B1C7
:101910002860E16B6FF0704048602068C660216805
:101920004FF4167048602068016841F001010160C1
:10193000BDE8F08F80000240080402400000002053
:10194000B201002070696E6B75000000CE000020AF
:1019500030B590F840500124AC40C56B6C60046811
:1019600063604368102B036803D099600068C2600D
:1019700030BD9A600068C16030BD7047012000F042
:1019800049BB00002DE9F0413B4F86B00022082101
:10199000384600F04FFC01220221384600F04AFC94
:1019A000DFF8D88001220221404600F043FC344891
:1019B000344D407B012804D11321314803F0D2F883
:1019C000287010212E4803F0CDF802460D212C4836
:1019D00003F0F5F92B782C4A0021294803F09AF8F6
:1019E000294C28780026012226540821384600F088
:1019F00021FC00220221384600F01CFC00220221BA
:101A0000404600F017FC20780D282BD16078012586
:101A1000542804D0432814D04C2815D022E0A078B4
:101A20001A4C30280BD000F00F014FF4FA704143EC
:101A30001748016017A003F037FD257012E02670EB
:101A400010E0164805700DE021790220CDE904016F
:101A5000642208218DE84700E378A1783022084805
:101A600002F0C2FF064803F0E3F906B00220BDE829
:101A7000F04100F0CFBA000000100140000C01401E
:101A8000B4060020EC000020B4430020D100002068
:101A9000D40000205443203D20256400D0000020C5
:101AA00070470000F0B50D4604468FB033A12846BC
:101AB000FEF70BFC06005AD004F5027048210746D9
:101AC000FEF7F8FB04F513731A1F0DF1280C911E95
:101AD00004F50F708CE80F00031F0DF1180C143A79
:101AE00014390B388CE80F00431E0DF1080C103A26
:101AF000123921388CE80F00011F801FCDE9000149
:101B0000431E3A461F493046FEF7F8FB94F8201270
:101B10002D2009B984F8200294F8301209B984F80C
:101B2000300294F8441209B984F8440294F83C1243
:101B300009B984F83C02D4F8100204F0D1FDC4E9DC
:101B4000860194F82022532A03D181F00041C4F881
:101B50001C12D4F8240204F0C3FDC4E98A0194F8ED
:101B60003022572A03D181F00041C4F82C12002002
:101B70002860686028810FB0F0BD000024474E4700
:101B800047412C00209900082DE9F05F90F82110C2
:101B90000024022903D004218163012485E0016827
:101BA0000A6822F00E020A6001680A6822F0010247
:101BB0000A603F4E3E4FB215DFF8F4C0DFF8F090F8
:101BC000DFF8ECA0DFF8E8B0DFF8E4E00168783F88
:101BD00013011502ACF1640CA9F15009AAF13C0AF9
:101BE000ABF1280BAEF1140E4FF48018B14227D997
:101BF000B9420ED0614512D049451DD0514518D08B
:101C0000594518D0714501D1424615E0294EB142DF
:101C100001D1012210E0274E1436B14201D1102229
:101C20000AE0244E2836B14206D0224A3C32914284
:101C300001D11A4600E02A461E49091F0A602BE01E
:101C4000B94213D0614517D0494522D051451DD026
:101C500059451DD0714501D142461AE0B14202D129
:101C60004FF0807215E0134EB14201D1012210E015
:101C7000104E1436B14201D110220AE00D4E283622
:101C8000B14206D00B4A3C32914201D11A4600E0E3
:101C90002A46074980394A60012180F82110002135
:101CA00080F82010416B01B188472046BDE8F09FC5
:101CB00080000240080402402DE9F05FC16B0A6811
:101CC00001680B68046C4FF0040808FA04F8844DAE
:101CD000844E854FDFF814C2DFF81492DFF814A2A7
:101CE000DFF814B2DFF814E218EA020F65D05FEAF9
:101CF000437862D50A68920603D40A6822F0040287
:101D00000A60DFF8F0814FF48062016808F114087E
:101D100013011402414524D9A9420DD0B1420FD07C
:101D2000B9421AD0614515D0494515D0514501D168
:101D3000120312E0594501D104220EE0714501D190
:101D400040220AE06D4D1435A94206D06B4A283274
:101D5000914201D11A4600E022466749091F0A60F4
:101D600029E0A94213D0B14215D0B94220D0614533
:101D70001BD049451BD0514502D14FF4800217E0DA
:101D8000414502D14FF0806212E0594501D1042251
:101D90000EE0714501D140220AE0584D1435A942A8
:101DA00006D0564A2832914201D11A4600E0224616
:101DB0004B4908394A60C16A71E04FF0020808FADD
:101DC00004F818EA020F70D05FEA83786DD50A68CC
:101DD000920606D40A6822F00A020A60012180F8FD
:101DE0002110DFF810814FF40072016808F1140827
:101DF00013011402414524D9A9420DD0B1420FD09C
:101E0000B9421AD0614515D0494515D0514501D187
:101E1000120312E0594501D102220EE0714501D1B1
:101E200020220AE0354D1435A94206D0334A283223
:101E3000914201D11A4600E022462F49091F0A604B
:101E400029E0A94213D0B14215D0B94220D0614552
:101E50001BD049451BD0514502D14FF4001217E069
:101E6000414502D14FF0007212E0594501D10222E2
:101E70000EE0714501D120220AE0204D1435A9421F
:101E800006D01E4A2832914201D11A4600E022466D
:101E9000134908394A60002180F82010816A00291E
:101EA0001CD0BDE8F05F0847FFE70825A5401542B4
:101EB00014D01A0712D50A6822F00E020A6090F8B0
:101EC0004020C36B012101FA02F25A60816380F85D
:101ED0002110002180F82010016BE0E7BDE8F09FA1
:101EE000080002401C000240300002404400024052
:101EF000580002406C000240080402401C040240EA
:101F000030B560B11A4B026814219A4209D2194BBC
:101F10001344B3FBF1F18900016417490AE0012081
:101F200030BD134B5B421344B3FBF1F189000164F4
:101F30000F490839C163022180F82110136843F664
:101F4000F0718B43F0E901142143D0E902452C43A1
:101F5000214304692143446921438469214319438E
:101F6000116000214163012242770177084630BDAC
:101F700008040240F8FFFDBF0000024070B50446AF
:101F800090F82000002501280CD0012084F82000C2
:101F900094F821600020012E06D084F8200002254C
:101FA000284670BD022070BD022684F82160A0631F
:101FB0002068066826F0010606602046FFF7C8FC88
:101FC000E06A00282068016802D041F00E0106E0B6
:101FD00021F0040101602068016841F00A010160FC
:101FE0002068016841F001010160D9E770B504463D
:101FF00000F026F90546601C02D00448007804442D
:1020000000F01EF9401BA042FAD370BDF000002082
:1020100070470000044910B50A68024202D0086007
:10202000FFF7F6FF10BD0000140401402DE9F84F42
:10203000DFF8C891002409F1040A0AF1040B2346D1
:102040000F270BF1040ED1E00125A54006EA050299
:10205000AA4276D1DFF8A8C14E68A6EB0C08664507
:102060002BD00DDC032E34D005DC36B3012E19D075
:10207000022E2FD11BE0112E16D0122E2AD119E0DC
:10208000B8F5881F19D006DCB8F5803F15D0B8F533
:10209000801F1FD111E0B8F5001F0ED0B8F5041F46
:1020A00018D10AE0CB6815E0CB681B1D12E0CB68A5
:1020B00008330FE0CB680C330CE08B682BB1012B9D
:1020C0004FF0080303D0456104E0042302E00561FA
:1020D00000E00023FF2A01D8064601E000F10406D3
:1020E0004FEA840501D9A5F12005D6F8008007FA4A
:1020F00005FC28EA0C0803FA05F548EA0508C6F8C5
:1021000000804D68ED0070D53E4DAE6946F0010689
:10211000AE61AD6924F0030605F0010500953A4D66
:1021200006EB050CDCF80850A607360F07FA06F890
:1021300025EA0805DFF8D480404503D14FF00008B8
:1021400025E052E0DFF8C880404502D14FF0010899
:102150001DE0DFF8C080404502D14FF0020816E0D4
:10216000DFF8B480404502D14FF003080FE0DFF8FC
:10217000AC80404502D14FF0040808E0DFF8A080B1
:10218000404502D14FF0050801E04FF0060808FA7B
:1021900006F848EA0508CCF808804D68D9F80060D0
:1021A000ED034D4601D5164300E096432E604D6881
:1021B000DAF80060AD03554601D5164300E09643BA
:1021C0002E604D68DBF80060ED025D4601D51643D8
:1021D00000E096432E604D68DEF80060AD02754663
:1021E00001D5164300E096432E60641C0A6816462B
:1021F000E2407FF429AFBDE8F88F00000004014001
:1022000000001110001002400000014000080140D1
:10221000000C014000100140001401400018014072
:10222000001C0140C26821EA02030A4043EA02415D
:10223000016170470AB1016170470904FBE70000C2
:102240000148806870470000F000002070B504006D
:1022500025D094F83D00002520B984F83C50204654
:1022600000F026FB242084F83D002068016821F05E
:10227000010101602068016841F4004101602068AB
:10228000016821F40041016000F0AAFC4D4A616838
:10229000914201D84C4900E04C49884201D20120CA
:1022A00070BD4B492368B0FBF1F15E6826F03F0634
:1022B0000E435E606368934206D94FF496735943A8
:1022C0004FF47A73B1FBF3F12368491C1E6A26F0C0
:1022D0003F06314319626168914210D84900401E9F
:1022E000B0FBF1F2521CC2F30B02042A01D204200B
:1022F00022E0B0FBF1F0401CC0F30B001CE0A26830
:10230000F2B301EBC10303EB0116431EB3FBF6F37B
:102310005B1C43F480431B0549D092B301EBC1021F
:1023200002EB0111401EB0FBF1F0401CC0F30B00AA
:1023300040F4804040F400402168CA694CF6FF73C5
:102340009A431043C861D4E907100143206802682A
:1023500022F0C00211430160D4E903010143206867
:10236000826848F2FF339A4311438160D4E9050142
:1023700008432168CA6822F0FF021043C86001E0E8
:102380000EE016E02068016841F00101016025645B
:10239000202084F83D00256384F83E50002070BD65
:1023A00001EB4106431EB3FBF6F35B1CB3E70120D0
:1023B000C2E701EB4101401EB0FBF1F0401CC0F34D
:1023C0000B00B7E7A086010080841E0000093D00D5
:1023D00040420F002DE9FF4F81B089460446FFF7C8
:1023E0002FFF054694F83D004FF0010820287DD1CD
:1023F0001923012250492046009501F0A1FD002833
:1024000074D194F83C00012870D0012084F83C007D
:1024100020680168C90703D1016841F0010101602A
:102420002068016821F400610160242084F83D00E7
:10243000002626644148E0624FF0011B20272068F7
:10244000016841F4807101600095002259462046E0
:10245000049B01F075FD50B120680068C00502D5ED
:102460004FF400702064032005B0BDE8F08F2168B0
:1024700009F0FE000861FFF7E3FE216805464869A0
:102480004969C0F34000C1F380214FF0A00A0FE07A
:10249000FFF7D6FE411B0498814200D808B984F8A2
:1024A0003DA0216848694969C0F34000C1F380211B
:1024B00094F83D20A02A02D008B90029E8D084F879
:1024C0003D7020684169C943890716D4016841F409
:1024D0000071016020684169806919230122164951
:1024E0002046009501F02CFDB8B900E021E084F809
:1024F0003D7084F83C600020B6E7016841F400714B
:10250000016021686FF480604861192301220A4943
:102510002046009501F014FD08B10120A4E70398BE
:1025200008F1010880458AD384F83D7084F83C6046
:10253000F3E7022098E70000020010000000FFFF10
:102540002DE9F84F0025DDF82890984617468A4671
:1025500004460095FFF774FE064694F83D002028D7
:102560007AD11923012283492046009601F0E8FC24
:102570000028F5D194F83C0001286DD0012084F8A2
:102580003C0020680168C90703D1016841F00101DE
:1025900001602068016821F400610160222084F854
:1025A0003D00102084F83E0025646762A4F82A806C
:1025B000608D20857048E06233464A465146204689
:1025C00001F0D4FB00287DD1208DDFF8B0812027D9
:1025D00068B1012814D00228206801681ED041F497
:1025E000806101602068416980690090B5E02068E1
:1025F000416981690091016841F400710160ACE0BA
:102600002068016821F48061016072B62068416928
:1026100081690091016841F400710AE041F40061B0
:10262000016072B62068416981690091016821F4F6
:102630008061016062B690E0032868D801280CD060
:1026400002284B464FF000024146204600960FD02C
:1026500001F076FCB0BB10E08AE0324649462046E5
:1026600001F0EDFC70BB20680069616A08706BE0E6
:1026700001F066FC30BB72B634E02068016821F4DA
:102680008061016072B620680069616A0870606AE2
:10269000401C6062208D401E2085608D401E60853C
:1026A000374846F2A8110068B0FBF1F0C0EBC0005B
:1026B00000EB80000090401E009008D02068406928
:1026C000C04300E029E040070CD50098F3E744F848
:1026D000305F6773A573206940F02000206162B607
:1026E00025731AE02068016841F4007101602068D8
:1026F0000069616A0870606A401C6062218D491E31
:102700002185618D491E618562B621681AE03246D5
:102710004946204601F093FC10B10120BDE8F88F36
:1027200020680069616A0870606A401C6062218DDF
:10273000491E2185618D491E618521684A69D24300
:1027400052070AD409690170606A401C6062208DDA
:10275000401E2085608D401E6085208D00287FF4FE
:102760006BAF84F83D7084F83E5084F83C50D5E758
:102770000220D3E7020010000000FFFF0400010068
:10278000FC0000202DE9F84F1F4690468A4604467B
:10279000DDF82890FFF754FD054694F83D00202809
:1027A0007FD11923012240492046009501F0C8FB42
:1027B000002876D194F83C00012872D0012084F8DA
:1027C0003C0020680168C90703D1016841F001019C
:1027D00001602068016821F400610160212084F813
:1027E0003D00102084F83E0000262664C4F82480B2
:1027F0006785608D20852D48E0622B464A4651460C
:10280000204601F029FB90B9206841698069009059
:1028100036E02A464946204601F044FC50B1206C7F
:10282000042804D12068016841F40071016001208E
:10283000BDE8F88F606A216800780861606A401C12
:102840006062618D491E6185218D491E89B2218595
:1028500022685369DB435B070BD451B100781061E8
:10286000606A401C6062608D401E6085208D401E45
:1028700020852A464946204601F03CFB0028CED15F
:10288000208D0028C5D154F83D0B016841F400713A
:102890000160202004F81E09E67766770020C7E76C
:1028A000FFE70220C4E70000020010000000FFFF65
:1028B00010B586B00021009101910291039100684A
:1028C000104988421BD1104CA06940F00800A0615B
:1028D000A069694600F0080004904FF44060009041
:1028E00012200190032003900848FFF79FFBE06946
:1028F00040F48000E061E06900F48000049006B0DC
:1029000010BD00000058004000100240000C0140C3
:10291000024881680278114481607047F00000200D
:10292000074810B5016841F010010160032000F074
:102930008FF8002000F006F800F03EF8002010BDEF
:102940000020024000B5014687B000221E2000F0A2
:102950005FF81E2000F04EF81348C16941F00401F1
:10296000C161C06905A900F004000690684600F046
:1029700017F900F035F90D494000B0FBF1F10D48B1
:102980000B4A491E0260416040F2E7320021C0E973
:102990000321816000F013FE10B1012007B000BDDB
:1029A000044800F03BFEF9E70010024040420F00EF
:1029B000000800407C4400200C4808B5816941F0C3
:1029C00001018161816901F001010091C16941F05A
:1029D0008051C161C06900F0805000900448416896
:1029E00021F0E06141F00071416008BD001002403B
:1029F00000000140002809DB00F01F020121914086
:102A00004009800000F1E020C0F80011704700008C
:102A1000F0B40E4B1B680C46C3F30223C3F1070549
:102A2000042D00D90425191D072901D2002300E037
:102A3000DB1E012606FA05F1491E214099409E4001
:102A4000761E16403143F0BC02F066BD0CED00E08E
:102A5000064900F0070208684FF6FF03184040EAF5
:102A60000220034A10430860704700000CED00E0AC
:102A70000000FA052DE9F0470F46050061D0434EEE
:102A8000306800F00700B84209D2306820F0070033
:102A900038433060306800F00700B84251D12868F0
:102AA0003B4C810712D5400703D5606840F4E060D5
:102AB00060602878000703D5606840F4605060606B
:102AC0006068A96820F0F000084360602878C007BB
:102AD00028D06868012810D02168022810D0890702
:102AE00000292EDA616821F0030101436160FFF7DC
:102AF000A7FB804641F288390DE021688903EFE7A2
:102B00008901EDE7FFF79CFBA0EB0801494502D9DD
:102B10000320BDE8F0876068696800F00C00B0EB46
:102B2000810FEFD1306800F00700B8420BD9306850
:102B300020F0070038433060306800F00700B842EA
:102B400001D00120E5E72878400705D56068E968ED
:102B500020F4E060084360602878000706D56068CC
:102B6000296920F4605040EAC100606000F058F824
:102B70006168084AC1F30311515CC8400649086006
:102B800006480068FFF7DEFE0020C2E70020024092
:102B90000010024038980008FC000020F4000020DB
:102BA0000F2202600C4A536803F00303436053682A
:102BB00003F0F0038360536803F4E063C36052687A
:102BC0004FF4E06303EAD20202610448006800F0B7
:102BD000070008607047000000100240002002401B
:102BE0000448054900684968044AC1F30221515C60
:102BF000C8407047FC0000200010024048980008C0
:102C00000448054900684968044AC1F3C221515C7F
:102C1000C8407047FC00002000100240489800089F
:102C200012A185B00FC98DE80F0014A0144A0068E6
:102C300004905168134801F00C03042B10D0082BAA
:102C40000ED1C1F38343C9031DF803000AD55168AF
:102C500004AAC1F34041515C0A4A5043B0FBF1F071
:102C600005B0704708494843FAE70000020304052D
:102C7000060708090A0B0C0D0E0F101001020000C8
:102C80000010024000127A0000093D002DE9F84FC3
:102C9000040070D02078C04DC00749D06868C0F3E8
:102CA0008100012807D06868C0F38100022809D19B
:102CB0006868C00306D52868800339D56068002895
:102CC000E7D035E06068B0F5803F0BD010B1B0F5CB
:102CD000A02F11D0286820F480302860286820F4C4
:102CE000802002E0286840F480302860606890B15D
:102CF000FFF7A6FA06460AE0286840F4802028601C
:102D0000F0E700BFFFF79CFA801B642873D828689F
:102D10008003F7D50CE0FFF793FA064605E000BF05
:102D2000FFF78EFA801B6428F0D828688003F7D458
:102D300020789A4E80074FF001094FF0000839D5EE
:102D4000686810F00C0F07D06868C0F38100022893
:102D500009D16868C00306D42868800714D52069A3
:102D6000012808D110E02069B0B1C6F80090FFF743
:102D700067FA074605E00AE1FFF762FAC01B02287E
:102D8000C4D828688007F7D52868616920F0F80062
:102D900040EAC10028600DE0C6F80080FFF750FA55
:102DA000074604E0FFF74CFAC01B022823D8286826
:102DB0008007F7D4207800072CD57948A169D9B1CC
:102DC000C0F80090FFF73CFA074604E0FFF738FA36
:102DD000C01B02280FD8686A8007F7D571484FF4E6
:102DE000FA510068B0FBF1F0009000BF0098411E5E
:102DF0000091FAD20EE080E0C0F80080FFF720FAE0
:102E0000074604E0FFF71CFAC01B022875D8686A61
:102E10008007F7D42078400760D5E8690027C00014
:102E200008D4E86940F08050E861E869012700F0C3
:102E3000805000905C480168C90513D4016883463E
:102E400041F480710160FFF7FBF9824606E000BFA4
:102E5000FFF7F6F9A0EB0A0064284ED8DBF8000073
:102E6000C005F5D5E06801280AD008B1052813D0BF
:102E7000286A20F001002862286A20F0040002E09D
:102E8000286A40F001002862E06841F2883B98B16E
:102E9000FFF7D6F982460BE0286A40F0040028626A
:102EA000EEE700BFFFF7CCF9A0EB0A0159455AD86D
:102EB000286A8007F6D50CE0FFF7C2F9824605E0E4
:102EC000FFF7BEF9A0EB0A0159454CD8286A8007E4
:102ED000F6D41FB1E86920F08050E861E06988B35A
:102EE0006968C1F38101022944D00228C6F86080D4
:102EF00004D0FFF7A5F9044638E034E0FFF7A0F965
:102F0000074604E0FFF79CF9C01B02282BD828686D
:102F10008001F7D4206AB0F5803F05D16868A168C8
:102F200020F4003008436860D4E908010843696868
:102F300021F4741108436860C6F86090FFF780F9C7
:102F4000044606E025E000BFFFF77AF9001B0228DF
:102F500009D828688001F7D51BE000BFFFF770F99A
:102F6000001B022802D90320BDE8F88F28688001E1
:102F7000F4D40EE00128F7D06868226A00F48031AA
:102F8000914204D1616A00F47010884201D001209E
:102F9000EAE70020E8E7000000100240000042429B
:102FA00080044242FC0000200070004070B5040024
:102FB00009D0606A002540B125616561A56294F879
:102FC000510040B10CE0012070BD6068B0F5827F17
:102FD000F4D0E561F2E784F85050204600F040F864
:102FE000022084F851002068016821F0400101604E
:102FF000A088218900F4827001F404410843A1896A
:1030000001F400610843217C01F002010843217DA5
:1030100001F001010843218B01F400710843217F75
:1030200001F03801084394F8201001F080010843B2
:10303000218D01F40051084321680860A069042132
:1030400001EA1040216848602068C16921F40061EC
:10305000C1616565012084F85100002070BD000049
:1030600030B585B000240094019402940394254D5A
:103070000368254802210322AB421AD1836943F435
:1030800080538361836903F480530493836943F01D
:103090000403836180691D4D00F004000490A020AA
:1030A000CDE90001039269462846FEF7BFFF4020A4
:1030B0001EE0174DAB4222D1C36943F48043C36184
:1030C000C36903F480430493836943F00803836175
:1030D0008069104D00F0080004904FF42040CDE9C5
:1030E0000001039269462846FEF7A0FF4FF4804096
:1030F000CDE90004694628460294FEF797FF05B023
:1031000030BD0000003001400010024000080140C6
:1031100000380040000C01402DE9F84F044640689B
:103120000025984616460F464FF0040BB0F5827FF7
:1031300001D1A06888B194F85000012818D001206E
:1031400084F85000FFF77CF8814694F851004FF066
:10315000000A01280ED0022582E084F851B01346FF
:103160000A462046CDF8008000F036F9BDE8F88F19
:103170000220FBE7002F72D0002E70D084F851B0EF
:10318000C4F854A0A763A687E687C4F830A0A4F8C3
:1031900034A0A4F836A0C4F840A0C4F844A0A068A5
:1031A000B0F5004F09D12068016821F040010160AD
:1031B0002068016821F480410160206801684906A7
:1031C00003D4016841F040010160E068D8B139E002
:1031D00020688168C90709D0007BA16B0870A06BCB
:1031E000401CA063E08F401EE0870CE0FFF728F84A
:1031F000A0EB0901414503D3B8F1FF3F03D036E00E
:10320000B8F1000F33D0E08F0028E1D11DE0206835
:103210008168C90709D0C068A16B0880A06B801CB9
:10322000A063E08F401EE0870CE0FFF709F8A0EBF9
:103230000901414503D3B8F1FF3F03D017E0B8F1CE
:10324000000F14D0E08F0028E1D14A4641462046C5
:1032500001F0ACFA08B120206065606D00B1012575
:10326000012084F8510084F850A028467EE7032509
:10327000F6E72DE9F84F044690F8500000271D4668
:103280001646894601280DD04FF0010B84F850B046
:10329000FEF7D6FF804694F85100BA46012804D0C4
:1032A000022793E00220BDE8F88FB9F1000F73D038
:1032B000002E71D0032084F85100C4F854A0C4F843
:1032C0003090A686E686C4F838A0A4F83CA0A4F8FE
:1032D0003EA0C4F844A0C4F840A0A068B0F5004FD8
:1032E00009D12068016821F040010160206801686F
:1032F00041F48041016020680168490603D40168F7
:1033000041F040010160E068B0F5006F606803D0F3
:1033100030B3012E24D041E008B1012E1CD1206B26
:1033200021680088C86006E020688168890709D59F
:10333000216B0988C160206B801C2063E08E401ED9
:10334000E08609E0FEF77CFFA0EB0800A84202D36C
:10335000681C01D031E07DB3E08E0028E4D120E08C
:10336000206B21680078087306E02068816889076F
:1033700009D5216B09780173206B401C2063E08E16
:10338000401EE0860AE0FEF75BFFA0EB0800A842C3
:1033900003D3681C02D010E017E06DB1E08E002866
:1033A000E3D142462946204601F02EFA08B12020FA
:1033B0006065A06818B106E0FFE7032706E0206813
:1033C000C16880680090606D00B1012784F851B039
:1033D00084F850A0384666E72DE9F84F044690F887
:1033E000500000270A9E1D4692468B464FF0010969
:1033F00001280ED0012084F85000FEF721FF8046FE
:1034000094F85100616801280CD0B1F5827F07D192
:1034100002E00220BDE8F88FA16809B9042801D0B4
:103420000227C2E0BBF1000F27D0BAF1000F24D071
:103430001DB394F85100042802D0052084F85100EF
:1034400000206065C4F838A0E587A587C4F830B0CF
:10345000E586A5862064606420680168490603D477
:10346000016841F040010160E068B0F5006F6068FC
:1034700005D0E8B3012D46D07FE0012795E008B1E3
:10348000012D39D1206B21680088C860206B801C19
:103490002063E08E401EE0862EE020688168890768
:1034A0000FD5E18E69B1B9F1010F0AD1216B0988FD
:1034B000C160206B801C2063E08E401EE0864FF0D0
:1034C000000920688168C9070CD0E18F51B1C0683C
:1034D000A16B0880A06B801CA063E08F401EE0877A
:1034E0004FF00109FEF7ACFEA0EB0800B04200E08F
:1034F00009E001D3701C50D1E08E0028CDD1E08FBF
:103500000028CAD13FE0206B216800780873206B47
:10351000401C2063E08E401EE0862EE0206881681B
:1035200089070FD5E18E69B1B9F1010F0AD1216B7D
:1035300009780173206B401C2063E08E401EE086FA
:103540004FF0000920688168C9070CD0E18F51B1A4
:10355000C068A16B0870A06B401CA063E08F401E88
:10356000E0874FF00109FEF76BFEA0EB0800B042C8
:1035700002D3701C01D010E07EB1E08E0028CDD1C6
:10358000E08F0028CAD142463146204601F03CF97E
:1035900028B101272020606507E0032705E0A06827
:1035A00018B92068C16880680090012084F8510033
:1035B000002084F8500038462CE77047704710B55B
:1035C000040003D094F83D0010B107E0012010BDC5
:1035D000002084F83C00204600F01EF8022084F809
:1035E0003D00211D206801F07FFD012084F8460088
:1035F00084F83E0084F83F0084F8400084F84100DD
:1036000084F8420084F8430084F8440084F84500BC
:1036100084F83D00002010BD7047000090F83D1078
:10362000012901D001207047022180F83D10016876
:10363000CA6842F00102CA6000680E4988420ED092
:103640000D4988420BD0B0F1804F08D00B49884219
:1036500005D00B49884202D00A49884204D18168CA
:1036600001F00701062903D0016841F00101016062
:1036700000207047002C014000340140000400404D
:1036800000080040000C0040704770B50446006818
:1036900001694FF00005C943890715D4C168C943C2
:1036A000890711D4E91E0161012020772068806913
:1036B0008007204602D0FFF7E7FF04E000F098F80B
:1036C000204600F096F8257720680169C94349072C
:1036D00017D4C168C943490713D46FF004010161CD
:1036E000022020772068806910F4407F204602D0B5
:1036F000FFF7CAFF04E000F07BF8204600F079F8FD
:10370000257720680169C943090716D4C168C943F0
:10371000090712D46FF008010161042020772068A6
:10372000C0698007204602D0FFF7AEFF04E000F03A
:103730005FF8204600F05DF8257720680169C943ED
:10374000C90617D4C168C943C90613D46FF0100164
:103750000161082020772068C06910F4407F20466E
:1037600002D0FFF791FF04E000F042F8204600F09D
:1037700040F8257720680169C943C90708D1C168A5
:10378000C943C90704D1891E0161204600F032F8FF
:1037900020680169C943090609D4C168C9430906FB
:1037A00005D46FF0800101612046FFF706FF206815
:1037B0000169C943490609D4C168C943490605D40A
:1037C0006FF040010161204600F01EF82068016999
:1037D000C94389060BD4C168C943890607D46FF071
:1037E000200101612046BDE87040FFF7E7BE70BDD3
:1037F0007047704700680349884201D1FFF788B8D5
:1038000070470000000800407047704770B50268BC
:1038100004461068D168536910F00F0F52D003F0BE
:10382000010501F490762E435FD0C20705D0CA058A
:1038300003D5E26B42F00102E263420705D5DA07E5
:1038400003D0E26B42F00202E263820705D5DA0799
:1038500003D0E26B42F00402E263020707D501F0F5
:1038600020022A4303D0E26B42F00802E263E26BDB
:10387000002A33D0800604D5880602D5204601F000
:1038800016FD20684069E16BC0F38010090700D481
:1038900028B3204601F0F4FC2068416949061AD596
:1038A000416921F040014161606BA0B12D49416344
:1038B000606BFEF769F9002810D0606B416BBDE8C2
:1038C00070400847830610D58B060ED52046BDE80C
:1038D000704001F0ECBC2046FFF797FF70BD20461A
:1038E000FFF793FF0020E06370BD03062BD50B06A6
:1038F00029D594F839002128F6D1A068B0F5805F69
:1039000001D12069B0B1206A411C21622168007890
:103910004860E08C401E0004000CE084E4D1206884
:10392000C16821F08001C1602068C16841F0400198
:10393000C16070BD206A0088C0F308005060206A32
:10394000801C2062E5E74006F3D54806F1D5D16832
:10395000204621F04001D160202184F8391000F088
:10396000ECF970BDE151000870B5040004D094F882
:103970003900002510B106E0012070BD84F83850F0
:10398000204600F023F8242084F839002068C1681C
:1039900021F40051C160204601F0D0FC206801698B
:1039A00021F4904101612068416921F02A014161BF
:1039B0002068C16841F40051C160E563202084F8AB
:1039C000390084F83A00002070BD0000F0B585B0E1
:1039D00000240094019402940394054603684C4823
:1039E000DFF828C1022103224A4E071563453CD166
:1039F000836943F480438361836903F480430493C0
:103A0000836943F0040383618069039200F004003A
:103A100004900802CDE9000169463046FEF706FB36
:103A2000CDE90074694630460294FEF7FFFA3B4E3A
:103A30003948C6E900048020C6E9024020203461EC
:103A4000C6E905403046F461FEF75AFA08B1FEF7C0
:103A500027F86E630022114625207562FEF7D8FF15
:103A60002520FEF7C7FF05B0F0BD2D4DAB4220D19C
:103A7000C36943F40033C361C36903F4003304939F
:103A8000836943F0040383618069039200F00400BA
:103A900004900420CDE9000169463046FEF7C6FADD
:103AA0000820CDE90004694630460294FEF7BEFACC
:103AB000D9E71C4DAB42D6D1C36943F48023C3611F
:103AC000C36903F480230493836943F01003836183
:103AD0008069CDE9007100F01000CDE90320124D9E
:103AE00069462846FEF7A2FAE814CDE900046946C3
:103AF00028460294FEF79AFA0C48416821F03001FA
:103B000041F0E06141F010014160ACE70038014054
:103B1000001002400008014058000240704300209D
:103B200000440040004800400010014000000140F7
:103B30002DE9F84F044690F83A009A4616460D468D
:103B4000202851D1EDB1E6B194F8380001284BD0CE
:103B5000012084F838000027E763222084F83A0027
:103B6000FEF76EFBA6858146E685A0684FF4805877
:103B7000404501D1206938B12E46002584F83870BF
:103B800027E00120BDE8F88F0026F7E74B4600222A
:103B900020212046CDF800A001F02CFC08B1032024
:103BA000F0E726B1A06840451BD038B108E0206896
:103BB0004068C0F3080025F8020B07E0206980B1D7
:103BC0002068406800F07F0006F8010BE08D401E81
:103BD000E085E08D0028D9D1202084F83A0000202B
:103BE000D0E720684068EFE70220CBE7F8B504464D
:103BF00090F83A0020283CD1C1B3BAB394F8380009
:103C0000012836D0012084F83800A162A285002561
:103C1000E563222084F83A00636B17489862636B6F
:103C20001648D862636B16481863606B1346456389
:103C30000846666B216802463046091DFEF79EF96C
:103C4000206801684168009184F83850C16841F4E7
:103C50008071C1602068416941F0010141612068C3
:103C6000416941F0400141610020F8BDFFE70120BA
:103C7000FBE70220F9E700003B52000877520008FA
:103C8000F1510008704770472DE9F843044690F859
:103C900039001F4616460D4620284CD1C5B1BEB18D
:103CA00094F83800012846D0012084F838004FF0FD
:103CB0000008C4F83C80212084F83900FEF7C0FADF
:103CC000A6848146E684A068B0F5805F03D004E056
:103CD0000120BDE8F883206928B12E465FF0000579
:103CE00084F838800EE00026FAE78021204601F0B3
:103CF00081FBA0B9AEB116F8010B21684860E08CD9
:103D0000401EE084E08C4B464FF0000200970028F4
:103D1000EBD14FF04001204601F06CFB30B10320A5
:103D2000D7E735F8020BC0F30800E6E7202084F857
:103D300039000020CDE70220CBE77047FEE701689D
:103D40004A69D24352050FD46FF480624A61002160
:103D500040F8301F202242738173026942F004024E
:103D60000261017301207047002070472DE9F84F70
:103D70000446C06A1E4693460D4621680A6842F40E
:103D800080620A60082807D0012805D010F5803F1E
:103D900002D0206B112804D12068016841F48071A1
:103DA00001604FF001195B4600224946204600960B
:103DB00000F0C6F84FF4007840B120680068C005F4
:103DC00001D5C4F840800320BDE8F88F2069DFF8F2
:103DD00084A0B0F5804F0FD00620216800EAD517E7
:103DE00047F0F000086133465A460AF106012046C2
:103DF00000F0DAF858BB03E0E8B240F001001CE044
:103E00002168E8B2086133465A465146204600F020
:103E1000CBF8E0B92068416981690091016841F4FB
:103E2000807101605B46002249462046009600F002
:103E300087F80028C1D147F0F100216808613346B6
:103E40005A465146204600F0AFF80028BCD0012069
:103E5000BAE7000002000100F8B50446C06A1E4639
:103E60000D461746082807D0012805D010F5803FD9
:103E700002D0206B122804D12068016841F48071BF
:103E80000160134600224FF001112046009600F019
:103E900057F840B120680068C00502D54FF40070A3
:103EA00020640320F8BD2069B0F5804F0ED00620B5
:103EB000216800EAD51040F0F000086133463A4628
:103EC0000B49204600F070F878B902E005F0FE00DA
:103ED00000E0E8B221680861054933463A46891F87
:103EE000204600F061F80028DCD00120F8BD000079
:103EF0000800010070B516460D4604460DE0204648
:103F0000FFF71DFF08B1012070BD681C05D0FEF74A
:103F100097F9801BA84207D835B120684069C04393
:103F20004007ECD4002070BD002044F8300F202161
:103F30006173A073216941F0200121612073E2E7E0
:103F40002DE9F0471E4690460D460446C1F307474B
:103F5000DDF8209008E0701C06D0FEF771F9A0EBA8
:103F60000900B0420FD876B12068012F18D08069BF
:103F700025EA00000004000C14D000214145EAD0DD
:103F80000020BDE8F087002044F8300F2021617345
:103F9000A073216941F02001216120730120F0E725
:103FA0004069E5E70121E9E72DE9F0479A469146A6
:103FB0000E46044600254FF02008C1F3074725E0D0
:103FC00020684069C043400514D42068016841F46A
:103FD0000071016021686FF480604861256384F896
:103FE0003D8084F83E50206C40F00400206484F84A
:103FF0003C501FE0B9F1FF3F08D0FEF721F9A0EBDC
:104000000A0149450CD8B9F1000F09D02068012FE9
:1040100013D0806926EA00000004000C0BD0CFE723
:1040200044F8305F84F80D80A573206940F02000CB
:10403000206125730120BDE8F0874069EAE72DE99A
:10404000F041002590460E460446202717E04069BF
:10405000C043C0060CD454F8301B6FF01000486108
:1040600044F810596777A577206A2062257717E012
:10407000FEF7E6F8A0EB0800B04208D83EB1206891
:104080004169C9434906E2D40020BDE8F08144F803
:10409000305F6773A573206940F0200020612573AD
:1040A0000120F2E770B516460D4604460DE02046A5
:1040B000FFF745FE08B1012070BD681C05D0FEF772
:1040C000BFF8801BA84207D835B120684069C043BB
:1040D0000006ECD4002070BD002044F8300F2021F1
:1040E0006173A073216941F0200121612073E2E72F
:1040F0002DE9FE4F824601226B2100F035F9202286
:104100006A21504600F030F90D222421504600F07B
:104110002BF900220A215046FDF730FB80226B214B
:10412000504600F021F9012002F0DAFC01220B21B7
:104130005046FDF723FB01226B21504600F014F995
:1041400001236A467521504600F0C0F800226C2118
:10415000504600F009F918221C21504600F004F9DD
:10416000564C55480325A067257518221B2150463B
:1041700000F0FAF85248E067657501221D215046AB
:1041800000F0F2F801221A21504600F0EDF8002567
:10419000A5752A461921504600F0E6F8E57520225B
:1041A0006A21504600F0E0F80D222421504600F02C
:1041B000DBF801236A460021504600F087F8002210
:1041C0000A215046FDF7DAFA642002F089FC0F223A
:1041D0000A215046FDF7D2FA642002F081FC032345
:1041E0006A4610215046FDF799FA9DF80000FCF749
:1041F000CCFD4FF086452946FCF7B4FB6FF007066F
:104200003146FCF725FC4FF07E573946FCF758FB4A
:10421000DFF8B0804146FCF7ABFBDFF8AC904946D5
:10422000FCF7D8FB803420609DF80100FCF7ADFD61
:104230002946FCF797FB3146FCF70AFC3946FCF7A8
:104240003FFB4146FCF794FB4946FCF7C3FB60602B
:104250009DF80200FCF799FD2946FCF783FB3146E7
:10426000FCF7F6FB3946FCF72BFB4146FCF780FBDD
:104270004946FCF7AFFBA06000220A215046FDF73B
:104280007DFA642002F02CFC16220A215046FDF72C
:1042900075FA642002F024FC01226B21504600F0E4
:1042A00063F807236A4603215046FDF737FA504664
:1042B00002F06EF8BDE8FE8F16EA9C3B100000206D
:1042C000E3A08B3A0080994500F0FF46FFB581B02E
:1042D0004FF0FF351E46174604460095006801233F
:1042E00002AAD021FEF74EFA009533463A46D02175
:1042F0002068FEF725F905B0F0BD00000148C06850
:1043000070470000900000200148006970470000DD
:104310009000002001484069704700009000002094
:104320000148806970470000900000200148C06982
:1043300070470000900000200148006A70470000AC
:10434000900000200148406A704700009000002063
:104350000148806A70470000900000200148C06A50
:1043600070470000900000207CB506468DF80410D0
:104370008DF805204FF0FF3014460D4600900223C3
:1043800001AAD0213068FEF7FDF960B9012301AA26
:1043900029463046FFF79AFF28B99DF80400A0424D
:1043A00001D100207CBD01207CBD0000F8B5054690
:1043B000134A0220C61E1070300C00EA4104009619
:1043C000012321462868FEF7DDF90D4F0020BF1FAD
:1043D00021463870009602233A462868FEF7B0F866
:1043E0003888A7F12C0140BAC008C885FCF7E8FC62
:1043F000044A054BFCF7DFFBBDE8F840FCF74CBD79
:1044000042000020FCA9F1D24D62703FF8B505468C
:10441000104A0420461F1070300C00EA410100963B
:104420000C4601232868FEF7ADF90A4F0020BF1F94
:1044300021463870009602233A462868FEF780F835
:1044400038880A2140BA00B290FBF1F0BDE8F8408C
:10445000FCF792BC42000020F8B505461648164C01
:104460004FF0FF363234C07C2070392060709F20BE
:10447000A07000960323224682212868FEF782F965
:1044800000960323224680212868FEF77BF9052049
:104490002070102060700020A07000960323224638
:1044A00082212868FEF76EF90096032322468021B8
:1044B0002868FEF767F9F8BD10000020094808B524
:1044C000416941F0010141614069002200F00100B1
:1044D000009011460F20FEF79BFABDE808400F2020
:1044E000FEF788BA0010024010B50B4A00210B48B5
:1044F00002F04CFB0A4C084A002120612432094892
:1045000002F044FB044A606148320021064802F090
:104510003DFBA06110BD0000CC9700087985000824
:10452000D0000020616A0008758200082DE9F0477C
:1045300086B0002439480094019402940394816960
:1045400041F020018161816901F0200104918169BC
:1045500041F010018161816901F0100104918169CC
:1045600041F004018161816901F0040104918169D4
:1045700041F0080181618069DFF8A48000F0080043
:1045800004900022AE214046FDF754FEDFF89490DF
:10459000002210214846FDF74DFEDFF88CA04FF4B5
:1045A0008857002239465046FDF744FEAE200125CB
:1045B0000226CDE90005CDE9024669464046FDF7F1
:1045C00035FD1020CDE90005CDE902466946484693
:1045D000FDF72CFD032000901448CDE90104694645
:1045E0005046FDF723FD00970396CDE90154694637
:1045F0005046FDF71BFD002211460620FEF708FA83
:104600000620FEF7F7F9002211460720FEF700FA10
:104610000720FEF7EFF906B0BDE8F0870010024072
:104620000010014000080140000C01400000111082
:104630000D4810B50B4901600C49416000214FF451
:1046400080428160C0E9031241618161C161016200
:10465000FDF7FCFD002803D0BDE81040FDF720BAAF
:1046600010BD000000580040AC410020A0860100B1
:10467000104810B50E4901604FF48271416000216D
:104680008160C1604FF400720161C0E9051210221F
:10469000C0E90721416281620A21C162FEF786FCFE
:1046A000002803D0BDE81040FDF7FAB910BD0000A6
:1046B0000030014000420020104810B50E49016052
:1046C0004FF48271416000218160C1604FF400723B
:1046D0000161C0E905120822C0E907214162816237
:1046E0000A21C162FEF762FC002803D0BDE8104039
:1046F000FDF7D6B910BD0000003800405842002038
:104700000C4810B50A4901604FF416514160002170
:1047100081600C22C160C0E904128161C161FFF7B0
:1047200023F9002803D0BDE81040FDF7B9B910BD4A
:1047300000380140B04200200C4810B50A49016021
:104740004FF461514160002181600C22C160C0E9D9
:1047500004128161C161FFF707F9002803D0BDE8A9
:104760001040FDF79DB910BD00440040F04200200C
:104770000C4810B50A4901604FF4E1314160002155
:1047800081600822C160C0E904128161C161FFF744
:10479000EBF8002803D0BDE81040FDF781B910BD4B
:1047A0000048004030430020FEE77047F8B504465B
:1047B00040684FF48273984217D1A0684FF4806527
:1047C000B0F5004F01D0A8420FD12068066826F04E
:1047D000400606606068984207D1A068A84204D1EC
:1047E00000920B460022012103E000920B460022BA
:1047F0008021204600F018F8002804D0606D40F0B9
:10480000200060650320F8BD38B50B4600920446D1
:104810000022802100F008F8002804D0606D40F0EC
:1048200020006065032038BD2DE9F8431E469146FF
:1048300088460446089DFDF703FD401B351AFDF729
:10484000FFFC074625480068C0F3CB30684338E0DA
:10485000701C37D0FDF7F4FCC01BA84203D215B181
:10486000009860B32CE02068416821F0E0014160CD
:104870006068B0F5827F0BD1A068B0F5004F02D020
:10488000B0F5806F04D12068016821F0400101601B
:10489000A06AB0F5005F09D12068016821F40051D9
:1048A00001602068016841F400510160012084F832
:1048B0005100002084F850000320BDE8F883002553
:1048C000401E00902068816838EA010004D0002171
:1048D0004945BDD10020F0E70121F9E7FC000020A7
:1048E0002DE9FF5F0025DDE911A8DDE90FB91E46BE
:1048F00017462C464221009800F034F9122800D1C6
:104900000125641CE4B2022CF4D3002D6BD00021ED
:10491000009800F0CFF94946009800F06DFB394649
:10492000009800F0A5FA3146009800F0B5FA594613
:10493000009800F0C5FA0E99009800F0F3F9FF22F4
:104940001021009800F03BFAD0223021009800F0AE
:1049500036FA00221146009800F037FA312100980B
:1049600000F000F900F09F0040F040023121009873
:1049700000F025FA2721009800F0F4F840F020021A
:104980002721009800F01BFA3521009800F0EAF882
:1049900000F0400040F08F023521009800F00FFA3F
:1049A00000222021009800F00AFA0022202100981D
:1049B00000F005FA00222021009800F000FAAA2257
:1049C0001F21009800F0FBF95146009800F01AFAF8
:1049D000DDE9000100F0CEF8009804B04146BDE8E2
:1049E000F05F03F0A7BCFEE72DE9F05F0D46DDE9BF
:1049F0000CA7DDE90A8B41711C469146064642210F
:104A000000F0B0F8122802D00020BDE8F09F01218C
:104A1000304600F04FF95146304600F0EDFA594665
:104A2000304600F07FF94946304600F0A3F81D21DA
:104A3000304600F097F8290141EA48003843C2B2F5
:104A40001D21304600F0BBF91E21304600F08AF8E7
:104A500000F0080040EA0410C0B240F004021E2139
:104A6000304600F0ACF964221F21304600F0A7F96F
:104A7000062C19D00A223721304600F0A0F9312146
:104A8000304600F06FF800F0F80231213046D21CB9
:104A900000F095F930460E9900F0E2F830460F9993
:104AA00003F048FC0120B0E70C223721304600F02B
:104AB00086F93121304600F055F800F0F802312136
:104AC0003046521DE4E7000070B586B014460DF183
:104AD000040C0D260025642312228CE86C000822A9
:104AE00000922B464FF4F072FFF7FAFE4FF49660F7
:104AF000B0FBF4F00149086006B070BDC8000020AA
:104B000010B5012100F02EF8000601D5012010BDDE
:104B1000002010BDF8B5054600680C461E46174635
:104B20000021083001F0F6FE04F07F008DF800004F
:104B300028686423012280696946FEF79AFB0024F5
:104B400008E028683919642380690122FEF7E4FA35
:104B5000641CE4B2B442F4D328680121083001F0A7
:104B6000D9FEF8BD08B501236A46FFF7D3FF9DF8CB
:104B7000000008BD70B50C460546FFF7C1FF0128CF
:104B800052D16A79092A11D0082A21D0072A1FD0C8
:104B9000062A1DD0052A27D0042A25D0032A23D08F
:104BA000022A21D0012A1FD052B33DE00222362131
:104BB000284600F004F97F223A21284600F0FFF849
:104BC00031212846FFF7CEFF40F08002312128E056
:104BD00031212846FFF7C6FF00F080023121284628
:104BE00000F0EDF8402216E031212846FFF7BAFF29
:104BF00000F080023121284600F0E1F844220AE06A
:104C000031212846FFF7AEFF00F08002312128460F
:104C100000F0D5F848222F21284600F0D0F80022D5
:104C20003021284600F0CBF80121284600F06BF82F
:104C30000A48062100EBC424220C284600F0BFF8E5
:104C4000C4F307220721284600F0B9F8E2B228464B
:104C5000BDE87040082100F0B2B8000000406C00D0
:104C600070B50C460546062900D9FEE7012100F083
:104C70004AF84FF026012846B4B1FFF773FF00F061
:104C8000FB022621284600F09AF80C212846FFF75F
:104C900069FF00F0070040EA4410C2B20C21284628
:104CA000BDE8704000F08BB8FFF75CFF40F00402F5
:104CB0002621F4E710B54173012904464FF00101A4
:104CC00013D0FFF74FFF40061CD00021204600F014
:104CD0001AF801212046FFF745FF00F07F02204629
:104CE000BDE81040012100F06AB8FFF73BFF00214A
:104CF000204600F008F801212046FFF733FF40F07E
:104D00008002ECE710BD70B50C4605460121FFF7A7
:104D100029FF00F0F80222430121284600F04FF855
:104D2000AC7370BD70B50C460646FFF7E9FE05464C
:104D300001213046FFF7E7FF220A012D01D04DB1D6
:104D400013E0062C11D32021304600F038F8E2B2EF
:104D5000212105E02521304600F031F8E2B226217C
:104D6000304600F02CF8012070BD002070BDF8B571
:104D7000054600680C461E4617460021083001F023
:104D8000C9FD44F080008DF80000286864230122EA
:104D900080696946FEF76DFA002408E02868391931
:104DA000642380690122FEF764FA641CE4B2B44211
:104DB000F4D328680121083001F0ACFDF8BD07B537
:104DC000012302AAFFF7D3FF0EBD70B500291446D8
:104DD00005464FF030010BD0FFF7C4FE00F0F9029A
:104DE00030212846921CFFF7EAFF2246332104E0D7
:104DF000FFF7B8FE00F0F90230212846BDE8704008
:104E0000FFF7DDBF70B50C4605460121FFF77BFFBC
:104E10000A212846FFF7A6FE00F09F02602000EA64
:104E2000441002432846BDE870400A21FFF7C7BF7F
:104E300010B504460121FFF766FF607B012804D10D
:104E40002046BDE8104000F054B810BD10B504462F
:104E50000068002101F05EFD0A2001F041FE012101
:104E6000206801F057FDBDE810400A2001F038BE6F
:104E700070B505460748B0FBF1F084B2220A022162
:104E80002846FFF79CFFE2B22846BDE870400321A8
:104E9000FFF795BF00E2040070B50546C8044FF463
:104EA000FA41B0FBF1F084B2220A04212846FFF750
:104EB00086FFE2B22846BDE870400521FFF77FBFBC
:104EC00070B504460322B1FBF2F002FB1010B1FBF7
:104ED000F2F1C1F1070141EAC005EAB2132120460F
:104EE000FFF76DFFEAB22046BDE870401221FFF7E0
:104EF00066BF10B50446407B012823D140212046DF
:104F0000FFF730FE00F00F0040F001024021204684
:104F1000FFF755FF204603F041FAFF2222212046E9
:104F2000FFF74DFF00220F212046FFF748FF002228
:104F30000D212046FFF743FF2046BDE81040052124
:104F4000FFF7E1BE10BD2DE9F04115460E460746BC
:104F5000002405E0315D384600F006F8641CE4B238
:104F6000AC42F7D3BDE8F0812DE9FC410646204A6A
:104F7000002000BF02EBC0031C6800945B68019333
:104F80009DF800308B4203D100241A4F6D4623E078
:104F9000401CC0B23428EDD3BDE8FC81281940780C
:104FA0002D2807D02E280ED103213046FFF7ABFE67
:104FB000386806E003213046FFF7A5FE386800EBAD
:104FC000400001F08DFD01213046FFF79CFE38685E
:104FD00001F086FD641CE4B2681CFBF788F9A0426E
:104FE000DCD8386800EB400001F07AFDD4E700001F
:104FF00094950008C80000202DE9F041A1F12D058D
:105000000C460746C42D03D314B10020BDE8F0813F
:105010000121FFF778FEDCB14B2D03D8052095FB6D
:10502000F0F0C6B2A4F182006E2804D80A201E3423
:10503000B4FBF0F0C6B20B213846FFF793FD00F049
:10504000E00232430B213846FFF7B9FE0120DDE7CD
:105050000B213846FFF786FD00F0DF02F2E7000083
:1050600010B5502080F31188BFF34F8FBFF36F8FBF
:1050700004F0EEF818B104494FF0805008600020A9
:1050800080F3118810BD000004ED00E030B58FB052
:1050900028216846FBF70EF914210AA8FBF70AF944
:1050A00001210804CDE90010002402940225049196
:1050B000CDE907504FF4E01009906846FDF7E6FD92
:1050C0000F20CDE90A056802CDE90C4002210AA8AB
:1050D0000E94FDF7CFFC0FB030BD70470148FEF7CE
:1050E000D4BA00007C440020F0B502681C4B1D4D72
:1050F0001D4E1E4F1E4C4FF0804C984209D0A042CE
:1051000007D0604505D0A84203D0B04201D0B842D4
:1051100004D122F0700E4A6842EA0E02984209D089
:10512000A04207D0604505D0A84203D0B04201D0CC
:10513000B84203D122F44075CA682A434D6922F06F
:1051400080022A4302608A68C2620A6882629842C8
:1051500001D0A04201D10969016301214161F0BD83
:10516000002C01400004004000080040000C0040FA
:1051700000340140094908B54A7C323103230A70E2
:1051800002224A7020228A704FF0FF310091034AB8
:10519000006832329021FDF7F5FA08BD10000020BA
:1051A0007CB54FF0FF3504460095006801230B4A9B
:1051B0009021FDF7E7FA0095022301AA90212068CB
:1051C000FDF7BEF9BDF8040040BA00B2FBF7D4FD0C
:1051D000A91FBDE87C40FBF73BBC0000220000207B
:1051E00010B5406A0021C185C184FEF70EFB10BDD9
:1051F00070B5446A2068406994F83910C0F3C01053
:105200000025212904D118B1E584204600F046F894
:105210002068406994F83A10C0F38010222904D124
:1052200018B1E585204600F02BF8E06B40F0100047
:10523000E0632046FEF7E9FA70BD10B50146406A0A
:1052400009680968890613D40021C1850168CA6804
:1052500022F48072CA6001684A6922F001024A6140
:1052600001684A6922F040024A61202180F83A1020
:10527000FEF708FD10BD10B5406AFEF704FD10BD35
:105280000168CA6822F49072CA6001684A6922F013
:1052900001024A61202180F83A1070470168CA680B
:1052A00022F0C002CA60202180F83910704710B582
:1052B00090F83A10222901D0022010BD82684FF4E4
:1052C00080539A4201D1016921B1816A9A421BD06F
:1052D0004AB10AE00268816A5268C2F308020A8091
:1052E000816A891C08E0026972B10268526802F0A2
:1052F0007F020A70816A491C8162C18D491E0904BE
:10530000090CC18503D016E002685268F1E7016814
:10531000CA6822F02002CA600168CA6822F480725A
:10532000CA6001684A6922F001024A61202180F8BE
:105330003A10FEF7A7FC002010BD000070B504462F
:1053400000680169E26821F440511143016121695B
:10535000A0680843616908432168CA6841F20C6388
:105360009A430243CA6020684169A26921F44071EE
:10537000114341611E492068884202D1FDF740FC7B
:1053800001E0FDF72DFC00EBC00101EB00126068AD
:1053900064218000B2FBF0F3B3FBF1F36FF0180669
:1053A0007343B2FBF0F5B2FBF0F605EB8305322355
:1053B00003EB0515B5FBF1F5B6FBF1F605F0F005CD
:1053C00005EB0615B2FBF0F6B2FBF0F0B0FBF1F026
:1053D0006FF01802504306EB800003EB0010B0FBA7
:1053E000F1F0216800F00F002844886070BD0000D3
:1053F000003801402DE9F041984617460E46044614
:10540000069D1DE0681C1BD02DB1FCF719FFA0EB19
:105410000800A84214D92068C16821F4D071C16085
:105420002068416921F001014161202084F83900A0
:1054300084F83A00002084F838000320BDE8F081A9
:105440002068006836EA000004D00020B842D9D0B5
:105450000020F3E70120F9E710B50548FEF7D6F97B
:105460000449034800F00AF803490120087010BD00
:10547000B042002070430020CC0000200A460168A2
:1054800081B00B68DB060CD50B6849680091116888
:105490000B6823F001030B600146104601B0FCF7D6
:1054A000A1B901B07047FEE70FB4054B10B503A9D1
:1054B000044A029800F096F910BC5DF814FB000055
:1054C000C9670008780100200FB4084B10B504A983
:1054D00002AA039800F086F9044602A9002000F011
:1054E00018FD204610BC5DF814FB0000135F000897
:1054F000490050EAC12018BF04204A0D18BF40F0EF
:10550000010040F2FF72B2EB515F08BF40F00200B1
:10551000012808BF052070470907090E002804DB91
:1055200000F1E02080F80014704700F00F0000F157
:10553000E02080F8141D70472DE9F0414F1E00EB6C
:10554000C7010446D1E9000115461E4637F00602A0
:105550000DD02A463346FBF72EFB7F1E04EBC70314
:10556000D3E90023FBF780FA37F00602F1D1022FCE
:1055700025D0042F13D0062F18BFBDE8F0812A468E
:105580003346FBF718FBD4E90A23FBF76DFA2A46EA
:105590003346FBF710FBD4E90823FBF765FA2A46EC
:1055A0003346FBF708FBD4E90623FBF75DFA2A46EE
:1055B0003346FBF700FBD4E90423FBF755FA2A46F0
:1055C0003346FBF7F8FAD4E90223FBF74DFA2A46F3
:1055D0003346FBF7F0FAD4E90023BDE8F041FBF7CE
:1055E00043BA00000022134610460149FBF755BBA1
:1055F0000000F03FFBF738BA002213461046114670
:10560000FBF74BBB40F2013200204FF0E041FBF7CB
:105610009DBD0000024A00201107FBF797BD000066
:1056200001FDFFFF02E008C8121F08C1002AFAD1DD
:1056300070477047002001E001C1121F002AFBD112
:105640007047000001490860704700007C0100209D
:105650002DE9FF5F82B00021DDE90430020DDDF8A5
:1056600040B0034318D044F61050A2F2FF32424338
:105670001514119801281FD0A5EB0B00401C5FEA00
:10568000000A4FF000064E4FDFF83891B046504602
:1056900015D5CAF1000413E0119801244AA301288A
:1056A00001D16FEA0B010298119AC0E90031C0E9FB
:1056B000024206B0BDE8F09FCBF10000DFE70446F0
:1056C0000021404A491842EB0450CDE9001012E095
:1056D000E00707D032463B4640464946FBF76BFAA7
:1056E0008046894632463B4610461946FBF763FA28
:1056F00006460F466410002CEAD1DDE90401DDE91D
:105700000023BAF1000F06DAFBF755FA42464B4682
:10571000FBF751FA05E0FBF7C0FA42464B46FBF7B0
:10572000BCFA04460E460022284BFBF79FFD03D827
:105730004FF0FF30014607E00022254B204631465E
:10574000FBF792F9FBF779FD102409E0002C0ADB46
:105750000A220023FBF7D2FB039B30321A55641E4A
:1057600050EA0102F2D1641C039AC4F111031444FB
:10577000119A012A03D0012208430DD10AE00843FF
:1057800004D000204FF0110B119072E7A3EB0B0532
:105790006D1E0DE05B4504DD4FF0000205F10105D3
:1057A00004E003DA4FF00002A5F10105002AECD075
:1057B00002981199C0E90231C0E9004579E700007B
:1057C000000014400000F03F300000000000F043F3
:1057D0000000E03F30380A2801D201207047002045
:1057E000704700002DE9FF4F95B09B46894606465D
:1057F00000250FE2252877D100242746F84A012109
:10580000059400E0044316F8013F203B01FA03F041
:105810001042F7D130782A2811D06FF02F0330785A
:10582000A0F13002092A16D8059A44F0020402EBCE
:10583000820203EB42021044761C0590EFE759F810
:10584000042B0592002A03DA504244F400540590D8
:1058500044F00204761C30782E2816D116F8010F79
:1058600044F004042A280DD06FF02F023078A0F104
:105870003003092B09D807EB870302EB4303C71852
:10588000761CF3E759F8047B761C30786C280FD02F
:1058900006DC4C2817D068280DD06A2814D104E003
:1058A000742810D07A280FD10DE044F400140AE0D7
:1058B00044F4801401E044F440147278824202D12E
:1058C00004F58014761C761C307866280BD013DC27
:1058D000582877D009DC002875D04528F6D046280E
:1058E000F4D047281AD19DE118E0632835D0642808
:1058F00079D0652812D195E1702873D008DC67282B
:10590000F1D069286FD06E280DD06F2806D1B5E090
:1059100073282CD0752875D0782874D05A461799DA
:1059200090476D1C75E1C4F30250022809D003288A
:105930000DD0D9F8001004280DD00D6009F104092C
:1059400067E1D9F80010EA17C1E90052F6E7D9F883
:1059500000100D80F2E70D70F0E719F8041B8DF8C8
:10596000001000208DF80100EA46012003E059F8FC
:1059700004AB4FF0FF3061074FF0000102D40DE09F
:1059800008F101018846B9420FDA8045F8DB1AF8C0
:1059900008100029F4D108E008F10101884681428D
:1059A000FADB1AF808100029F6D105985B46A0EB3F
:1059B000080721463846179A00F094FA284400EB6D
:1059C000080507E04DE029E10DE01AF8010B5A4601
:1059D00017999047B8F10108F7D25B46214638463F
:1059E000179A13E142E00A220092C4F302524FF0E8
:1059F000000A022A08D059F804CB032A4FEAEC71B6
:105A00000AD00DE029E02AE009F1070121F00702A0
:105A1000F2E802C1914609E00FFA8CFC4FEAEC7102
:105A2000042A03D14FFA8CFC4FEAEC71002907DA03
:105A30000A460021DCF1000C61EB02012D2202E09C
:105A4000220504D52B228DF80420012203E0E20771
:105A500001D02022F7E7904659E00A2102E0102207
:105A60000DE010214FF0000A00910BE010224FF0E2
:105A7000000A44F004040827009203E008224FF0D3
:105A8000000A0092C4F30252022A05D059F804CB4E
:105A90000021032A08D009E009F1070121F00702DB
:105AA000F2E802C1914605E01FFA8CFC042A01D1FC
:105AB0000CF0FF0C4FF00008220728D5702806D004
:105AC000009B83F0100353EA0A0305D00EE0402246
:105AD0008DF80420012208E05CEA010206D03022A1
